{
	"contracts/Gitmod.sol": {
		"Gitmod": {
			"abi": [
				{
					"inputs": [
						{
							"internalType": "address",
							"name": "User",
							"type": "address"
						}
					],
					"name": "Allow",
					"outputs": [],
					"stateMutability": "nonpayable",
					"type": "function"
				},
				{
					"inputs": [
						{
							"internalType": "address",
							"name": "User",
							"type": "address"
						}
					],
					"name": "DisAllow",
					"outputs": [],
					"stateMutability": "nonpayable",
					"type": "function"
				},
				{
					"inputs": [
						{
							"internalType": "address",
							"name": "User",
							"type": "address"
						}
					],
					"name": "Display",
					"outputs": [
						{
							"internalType": "string[]",
							"name": "",
							"type": "string[]"
						}
					],
					"stateMutability": "view",
					"type": "function"
				},
				{
					"inputs": [],
					"name": "ShareAccess",
					"outputs": [
						{
							"components": [
								{
									"internalType": "address",
									"name": "User",
									"type": "address"
								},
								{
									"internalType": "bool",
									"name": "Allow",
									"type": "bool"
								}
							],
							"internalType": "struct Gitmod.Access[]",
							"name": "",
							"type": "tuple[]"
						}
					],
					"stateMutability": "view",
					"type": "function"
				},
				{
					"inputs": [
						{
							"internalType": "address",
							"name": "User",
							"type": "address"
						},
						{
							"internalType": "string",
							"name": "URL",
							"type": "string"
						}
					],
					"name": "Upload",
					"outputs": [],
					"stateMutability": "nonpayable",
					"type": "function"
				}
			],
			"devdoc": {
				"kind": "dev",
				"methods": {},
				"version": 1
			},
			"evm": {
				"assembly": "    /* \"contracts/Gitmod.sol\":66:1580  contract Gitmod {... */\n  mstore(0x40, 0x80)\n  callvalue\n  dup1\n  iszero\n  tag_1\n  jumpi\n  0x00\n  dup1\n  revert\ntag_1:\n  pop\n  dataSize(sub_0)\n  dup1\n  dataOffset(sub_0)\n  0x00\n  codecopy\n  0x00\n  return\nstop\n\nsub_0: assembly {\n        /* \"contracts/Gitmod.sol\":66:1580  contract Gitmod {... */\n      mstore(0x40, 0x80)\n      callvalue\n      dup1\n      iszero\n      tag_1\n      jumpi\n      0x00\n      dup1\n      revert\n    tag_1:\n      pop\n      jumpi(tag_2, lt(calldatasize, 0x04))\n      shr(0xe0, calldataload(0x00))\n      dup1\n      0x16c61d72\n      eq\n      tag_3\n      jumpi\n      dup1\n      0x2270a498\n      eq\n      tag_4\n      jumpi\n      dup1\n      0x4ab1fb4e\n      eq\n      tag_5\n      jumpi\n      dup1\n      0x5b24559e\n      eq\n      tag_6\n      jumpi\n      dup1\n      0x62d61095\n      eq\n      tag_7\n      jumpi\n    tag_2:\n      0x00\n      dup1\n      revert\n        /* \"contracts/Gitmod.sol\":671:1159  function Allow(address User) external {... */\n    tag_3:\n      tag_8\n      0x04\n      dup1\n      calldatasize\n      sub\n      dup2\n      add\n      swap1\n      tag_9\n      swap2\n      swap1\n      tag_10\n      jump\t// in\n    tag_9:\n      tag_11\n      jump\t// in\n    tag_8:\n      stop\n        /* \"contracts/Gitmod.sol\":1164:1466  function DisAllow(address User) public {... */\n    tag_4:\n      tag_12\n      0x04\n      dup1\n      calldatasize\n      sub\n      dup2\n      add\n      swap1\n      tag_13\n      swap2\n      swap1\n      tag_10\n      jump\t// in\n    tag_13:\n      tag_14\n      jump\t// in\n    tag_12:\n      stop\n        /* \"contracts/Gitmod.sol\":468:666  function Display(address User) external view returns (string[] memory) {... */\n    tag_5:\n      tag_15\n      0x04\n      dup1\n      calldatasize\n      sub\n      dup2\n      add\n      swap1\n      tag_16\n      swap2\n      swap1\n      tag_10\n      jump\t// in\n    tag_16:\n      tag_17\n      jump\t// in\n    tag_15:\n      mload(0x40)\n      tag_18\n      swap2\n      swap1\n      tag_19\n      jump\t// in\n    tag_18:\n      mload(0x40)\n      dup1\n      swap2\n      sub\n      swap1\n      return\n        /* \"contracts/Gitmod.sol\":366:462  function Upload(address User, string memory URL) external {... */\n    tag_6:\n      tag_20\n      0x04\n      dup1\n      calldatasize\n      sub\n      dup2\n      add\n      swap1\n      tag_21\n      swap2\n      swap1\n      tag_22\n      jump\t// in\n    tag_21:\n      tag_23\n      jump\t// in\n    tag_20:\n      stop\n        /* \"contracts/Gitmod.sol\":1471:1578  function ShareAccess() public view returns (Access[] memory) {... */\n    tag_7:\n      tag_24\n      tag_25\n      jump\t// in\n    tag_24:\n      mload(0x40)\n      tag_26\n      swap2\n      swap1\n      tag_27\n      jump\t// in\n    tag_26:\n      mload(0x40)\n      dup1\n      swap2\n      sub\n      swap1\n      return\n        /* \"contracts/Gitmod.sol\":671:1159  function Allow(address User) external {... */\n    tag_11:\n        /* \"contracts/Gitmod.sol\":747:751  true */\n      0x01\n        /* \"contracts/Gitmod.sol\":719:728  Ownership */\n      dup1\n        /* \"contracts/Gitmod.sol\":719:740  Ownership[msg.sender] */\n      0x00\n        /* \"contracts/Gitmod.sol\":729:739  msg.sender */\n      caller\n        /* \"contracts/Gitmod.sol\":719:740  Ownership[msg.sender] */\n      0xffffffffffffffffffffffffffffffffffffffff\n      and\n      0xffffffffffffffffffffffffffffffffffffffff\n      and\n      dup2\n      mstore\n      0x20\n      add\n      swap1\n      dup2\n      mstore\n      0x20\n      add\n      0x00\n      keccak256\n        /* \"contracts/Gitmod.sol\":719:746  Ownership[msg.sender][User] */\n      0x00\n        /* \"contracts/Gitmod.sol\":741:745  User */\n      dup4\n        /* \"contracts/Gitmod.sol\":719:746  Ownership[msg.sender][User] */\n      0xffffffffffffffffffffffffffffffffffffffff\n      and\n      0xffffffffffffffffffffffffffffffffffffffff\n      and\n      dup2\n      mstore\n      0x20\n      add\n      swap1\n      dup2\n      mstore\n      0x20\n      add\n      0x00\n      keccak256\n      0x00\n        /* \"contracts/Gitmod.sol\":719:751  Ownership[msg.sender][User]=true */\n      0x0100\n      exp\n      dup2\n      sload\n      dup2\n      0xff\n      mul\n      not\n      and\n      swap1\n      dup4\n      iszero\n      iszero\n      mul\n      or\n      swap1\n      sstore\n      pop\n        /* \"contracts/Gitmod.sol\":764:777  PreviousState */\n      0x02\n        /* \"contracts/Gitmod.sol\":764:789  PreviousState[msg.sender] */\n      0x00\n        /* \"contracts/Gitmod.sol\":778:788  msg.sender */\n      caller\n        /* \"contracts/Gitmod.sol\":764:789  PreviousState[msg.sender] */\n      0xffffffffffffffffffffffffffffffffffffffff\n      and\n      0xffffffffffffffffffffffffffffffffffffffff\n      and\n      dup2\n      mstore\n      0x20\n      add\n      swap1\n      dup2\n      mstore\n      0x20\n      add\n      0x00\n      keccak256\n        /* \"contracts/Gitmod.sol\":764:795  PreviousState[msg.sender][User] */\n      0x00\n        /* \"contracts/Gitmod.sol\":790:794  User */\n      dup3\n        /* \"contracts/Gitmod.sol\":764:795  PreviousState[msg.sender][User] */\n      0xffffffffffffffffffffffffffffffffffffffff\n      and\n      0xffffffffffffffffffffffffffffffffffffffff\n      and\n      dup2\n      mstore\n      0x20\n      add\n      swap1\n      dup2\n      mstore\n      0x20\n      add\n      0x00\n      keccak256\n      0x00\n      swap1\n      sload\n      swap1\n      0x0100\n      exp\n      swap1\n      div\n      0xff\n      and\n        /* \"contracts/Gitmod.sol\":761:1153  if(PreviousState[msg.sender][User]){... */\n      iszero\n      tag_29\n      jumpi\n        /* \"contracts/Gitmod.sol\":814:820  uint I */\n      0x00\n        /* \"contracts/Gitmod.sol\":810:1009  for(uint I=0; I<AccessList[msg.sender].length;I++){... */\n    tag_30:\n        /* \"contracts/Gitmod.sol\":826:836  AccessList */\n      0x03\n        /* \"contracts/Gitmod.sol\":826:848  AccessList[msg.sender] */\n      0x00\n        /* \"contracts/Gitmod.sol\":837:847  msg.sender */\n      caller\n        /* \"contracts/Gitmod.sol\":826:848  AccessList[msg.sender] */\n      0xffffffffffffffffffffffffffffffffffffffff\n      and\n      0xffffffffffffffffffffffffffffffffffffffff\n      and\n      dup2\n      mstore\n      0x20\n      add\n      swap1\n      dup2\n      mstore\n      0x20\n      add\n      0x00\n      keccak256\n        /* \"contracts/Gitmod.sol\":826:855  AccessList[msg.sender].length */\n      dup1\n      sload\n      swap1\n      pop\n        /* \"contracts/Gitmod.sol\":824:825  I */\n      dup2\n        /* \"contracts/Gitmod.sol\":824:855  I<AccessList[msg.sender].length */\n      lt\n        /* \"contracts/Gitmod.sol\":810:1009  for(uint I=0; I<AccessList[msg.sender].length;I++){... */\n      iszero\n      tag_31\n      jumpi\n        /* \"contracts/Gitmod.sol\":913:917  User */\n      dup2\n        /* \"contracts/Gitmod.sol\":881:917  AccessList[msg.sender][I].User==User */\n      0xffffffffffffffffffffffffffffffffffffffff\n      and\n        /* \"contracts/Gitmod.sol\":881:891  AccessList */\n      0x03\n        /* \"contracts/Gitmod.sol\":881:903  AccessList[msg.sender] */\n      0x00\n        /* \"contracts/Gitmod.sol\":892:902  msg.sender */\n      caller\n        /* \"contracts/Gitmod.sol\":881:903  AccessList[msg.sender] */\n      0xffffffffffffffffffffffffffffffffffffffff\n      and\n      0xffffffffffffffffffffffffffffffffffffffff\n      and\n      dup2\n      mstore\n      0x20\n      add\n      swap1\n      dup2\n      mstore\n      0x20\n      add\n      0x00\n      keccak256\n        /* \"contracts/Gitmod.sol\":904:905  I */\n      dup3\n        /* \"contracts/Gitmod.sol\":881:906  AccessList[msg.sender][I] */\n      dup2\n      sload\n      dup2\n      lt\n      tag_33\n      jumpi\n      tag_34\n      tag_35\n      jump\t// in\n    tag_34:\n    tag_33:\n      swap1\n      0x00\n      mstore\n      keccak256(0x00, 0x20)\n      add\n        /* \"contracts/Gitmod.sol\":881:911  AccessList[msg.sender][I].User */\n      0x00\n      add\n      0x00\n      swap1\n      sload\n      swap1\n      0x0100\n      exp\n      swap1\n      div\n      0xffffffffffffffffffffffffffffffffffffffff\n      and\n        /* \"contracts/Gitmod.sol\":881:917  AccessList[msg.sender][I].User==User */\n      0xffffffffffffffffffffffffffffffffffffffff\n      and\n      sub\n        /* \"contracts/Gitmod.sol\":878:995  if(AccessList[msg.sender][I].User==User){... */\n      tag_37\n      jumpi\n        /* \"contracts/Gitmod.sol\":972:976  true */\n      0x01\n        /* \"contracts/Gitmod.sol\":940:950  AccessList */\n      0x03\n        /* \"contracts/Gitmod.sol\":940:962  AccessList[msg.sender] */\n      0x00\n        /* \"contracts/Gitmod.sol\":951:961  msg.sender */\n      caller\n        /* \"contracts/Gitmod.sol\":940:962  AccessList[msg.sender] */\n      0xffffffffffffffffffffffffffffffffffffffff\n      and\n      0xffffffffffffffffffffffffffffffffffffffff\n      and\n      dup2\n      mstore\n      0x20\n      add\n      swap1\n      dup2\n      mstore\n      0x20\n      add\n      0x00\n      keccak256\n        /* \"contracts/Gitmod.sol\":963:964  I */\n      dup3\n        /* \"contracts/Gitmod.sol\":940:965  AccessList[msg.sender][I] */\n      dup2\n      sload\n      dup2\n      lt\n      tag_38\n      jumpi\n      tag_39\n      tag_35\n      jump\t// in\n    tag_39:\n    tag_38:\n      swap1\n      0x00\n      mstore\n      keccak256(0x00, 0x20)\n      add\n        /* \"contracts/Gitmod.sol\":940:971  AccessList[msg.sender][I].Allow */\n      0x00\n      add\n      0x14\n        /* \"contracts/Gitmod.sol\":940:976  AccessList[msg.sender][I].Allow=true */\n      0x0100\n      exp\n      dup2\n      sload\n      dup2\n      0xff\n      mul\n      not\n      and\n      swap1\n      dup4\n      iszero\n      iszero\n      mul\n      or\n      swap1\n      sstore\n      pop\n        /* \"contracts/Gitmod.sol\":878:995  if(AccessList[msg.sender][I].User==User){... */\n    tag_37:\n        /* \"contracts/Gitmod.sol\":856:859  I++ */\n      dup1\n      dup1\n      tag_41\n      swap1\n      tag_42\n      jump\t// in\n    tag_41:\n      swap2\n      pop\n      pop\n        /* \"contracts/Gitmod.sol\":810:1009  for(uint I=0; I<AccessList[msg.sender].length;I++){... */\n      jump(tag_30)\n    tag_31:\n      pop\n        /* \"contracts/Gitmod.sol\":761:1153  if(PreviousState[msg.sender][User]){... */\n      jump(tag_43)\n    tag_29:\n        /* \"contracts/Gitmod.sol\":1046:1056  AccessList */\n      0x03\n        /* \"contracts/Gitmod.sol\":1046:1068  AccessList[msg.sender] */\n      0x00\n        /* \"contracts/Gitmod.sol\":1057:1067  msg.sender */\n      caller\n        /* \"contracts/Gitmod.sol\":1046:1068  AccessList[msg.sender] */\n      0xffffffffffffffffffffffffffffffffffffffff\n      and\n      0xffffffffffffffffffffffffffffffffffffffff\n      and\n      dup2\n      mstore\n      0x20\n      add\n      swap1\n      dup2\n      mstore\n      0x20\n      add\n      0x00\n      keccak256\n        /* \"contracts/Gitmod.sol\":1074:1091  Access(User,true) */\n      mload(0x40)\n      dup1\n      0x40\n      add\n      0x40\n      mstore\n      dup1\n        /* \"contracts/Gitmod.sol\":1081:1085  User */\n      dup4\n        /* \"contracts/Gitmod.sol\":1074:1091  Access(User,true) */\n      0xffffffffffffffffffffffffffffffffffffffff\n      and\n      dup2\n      mstore\n      0x20\n      add\n        /* \"contracts/Gitmod.sol\":1086:1090  true */\n      0x01\n        /* \"contracts/Gitmod.sol\":1074:1091  Access(User,true) */\n      iszero\n      iszero\n      dup2\n      mstore\n      pop\n        /* \"contracts/Gitmod.sol\":1046:1092  AccessList[msg.sender].push(Access(User,true)) */\n      swap1\n      dup1\n      0x01\n      dup2\n      sload\n      add\n      dup1\n      dup3\n      sstore\n      dup1\n      swap2\n      pop\n      pop\n      0x01\n      swap1\n      sub\n      swap1\n      0x00\n      mstore\n      keccak256(0x00, 0x20)\n      add\n      0x00\n      swap1\n      swap2\n      swap1\n      swap2\n      swap1\n      swap2\n      pop\n      0x00\n      dup3\n      add\n      mload\n      dup2\n      0x00\n      add\n      exp(0x0100, 0x00)\n      dup2\n      sload\n      dup2\n      0xffffffffffffffffffffffffffffffffffffffff\n      mul\n      not\n      and\n      swap1\n      dup4\n      0xffffffffffffffffffffffffffffffffffffffff\n      and\n      mul\n      or\n      swap1\n      sstore\n      pop\n      0x20\n      dup3\n      add\n      mload\n      dup2\n      0x00\n      add\n      exp(0x0100, 0x14)\n      dup2\n      sload\n      dup2\n      0xff\n      mul\n      not\n      and\n      swap1\n      dup4\n      iszero\n      iszero\n      mul\n      or\n      swap1\n      sstore\n      pop\n      pop\n      pop\n        /* \"contracts/Gitmod.sol\":1138:1142  true */\n      0x01\n        /* \"contracts/Gitmod.sol\":1106:1119  PreviousState */\n      0x02\n        /* \"contracts/Gitmod.sol\":1106:1131  PreviousState[msg.sender] */\n      0x00\n        /* \"contracts/Gitmod.sol\":1120:1130  msg.sender */\n      caller\n        /* \"contracts/Gitmod.sol\":1106:1131  PreviousState[msg.sender] */\n      0xffffffffffffffffffffffffffffffffffffffff\n      and\n      0xffffffffffffffffffffffffffffffffffffffff\n      and\n      dup2\n      mstore\n      0x20\n      add\n      swap1\n      dup2\n      mstore\n      0x20\n      add\n      0x00\n      keccak256\n        /* \"contracts/Gitmod.sol\":1106:1137  PreviousState[msg.sender][User] */\n      0x00\n        /* \"contracts/Gitmod.sol\":1132:1136  User */\n      dup4\n        /* \"contracts/Gitmod.sol\":1106:1137  PreviousState[msg.sender][User] */\n      0xffffffffffffffffffffffffffffffffffffffff\n      and\n      0xffffffffffffffffffffffffffffffffffffffff\n      and\n      dup2\n      mstore\n      0x20\n      add\n      swap1\n      dup2\n      mstore\n      0x20\n      add\n      0x00\n      keccak256\n      0x00\n        /* \"contracts/Gitmod.sol\":1106:1142  PreviousState[msg.sender][User]=true */\n      0x0100\n      exp\n      dup2\n      sload\n      dup2\n      0xff\n      mul\n      not\n      and\n      swap1\n      dup4\n      iszero\n      iszero\n      mul\n      or\n      swap1\n      sstore\n      pop\n        /* \"contracts/Gitmod.sol\":761:1153  if(PreviousState[msg.sender][User]){... */\n    tag_43:\n        /* \"contracts/Gitmod.sol\":671:1159  function Allow(address User) external {... */\n      pop\n      jump\t// out\n        /* \"contracts/Gitmod.sol\":1164:1466  function DisAllow(address User) public {... */\n    tag_14:\n        /* \"contracts/Gitmod.sol\":1241:1246  false */\n      0x00\n        /* \"contracts/Gitmod.sol\":1213:1222  Ownership */\n      0x01\n        /* \"contracts/Gitmod.sol\":1213:1234  Ownership[msg.sender] */\n      0x00\n        /* \"contracts/Gitmod.sol\":1223:1233  msg.sender */\n      caller\n        /* \"contracts/Gitmod.sol\":1213:1234  Ownership[msg.sender] */\n      0xffffffffffffffffffffffffffffffffffffffff\n      and\n      0xffffffffffffffffffffffffffffffffffffffff\n      and\n      dup2\n      mstore\n      0x20\n      add\n      swap1\n      dup2\n      mstore\n      0x20\n      add\n      0x00\n      keccak256\n        /* \"contracts/Gitmod.sol\":1213:1240  Ownership[msg.sender][User] */\n      0x00\n        /* \"contracts/Gitmod.sol\":1235:1239  User */\n      dup4\n        /* \"contracts/Gitmod.sol\":1213:1240  Ownership[msg.sender][User] */\n      0xffffffffffffffffffffffffffffffffffffffff\n      and\n      0xffffffffffffffffffffffffffffffffffffffff\n      and\n      dup2\n      mstore\n      0x20\n      add\n      swap1\n      dup2\n      mstore\n      0x20\n      add\n      0x00\n      keccak256\n      0x00\n        /* \"contracts/Gitmod.sol\":1213:1246  Ownership[msg.sender][User]=false */\n      0x0100\n      exp\n      dup2\n      sload\n      dup2\n      0xff\n      mul\n      not\n      and\n      swap1\n      dup4\n      iszero\n      iszero\n      mul\n      or\n      swap1\n      sstore\n      pop\n        /* \"contracts/Gitmod.sol\":1264:1270  uint I */\n      0x00\n        /* \"contracts/Gitmod.sol\":1260:1460  for(uint I=0; I<AccessList[msg.sender].length;I++){... */\n    tag_46:\n        /* \"contracts/Gitmod.sol\":1276:1286  AccessList */\n      0x03\n        /* \"contracts/Gitmod.sol\":1276:1298  AccessList[msg.sender] */\n      0x00\n        /* \"contracts/Gitmod.sol\":1287:1297  msg.sender */\n      caller\n        /* \"contracts/Gitmod.sol\":1276:1298  AccessList[msg.sender] */\n      0xffffffffffffffffffffffffffffffffffffffff\n      and\n      0xffffffffffffffffffffffffffffffffffffffff\n      and\n      dup2\n      mstore\n      0x20\n      add\n      swap1\n      dup2\n      mstore\n      0x20\n      add\n      0x00\n      keccak256\n        /* \"contracts/Gitmod.sol\":1276:1305  AccessList[msg.sender].length */\n      dup1\n      sload\n      swap1\n      pop\n        /* \"contracts/Gitmod.sol\":1274:1275  I */\n      dup2\n        /* \"contracts/Gitmod.sol\":1274:1305  I<AccessList[msg.sender].length */\n      lt\n        /* \"contracts/Gitmod.sol\":1260:1460  for(uint I=0; I<AccessList[msg.sender].length;I++){... */\n      iszero\n      tag_47\n      jumpi\n        /* \"contracts/Gitmod.sol\":1363:1367  User */\n      dup2\n        /* \"contracts/Gitmod.sol\":1331:1367  AccessList[msg.sender][I].User==User */\n      0xffffffffffffffffffffffffffffffffffffffff\n      and\n        /* \"contracts/Gitmod.sol\":1331:1341  AccessList */\n      0x03\n        /* \"contracts/Gitmod.sol\":1331:1353  AccessList[msg.sender] */\n      0x00\n        /* \"contracts/Gitmod.sol\":1342:1352  msg.sender */\n      caller\n        /* \"contracts/Gitmod.sol\":1331:1353  AccessList[msg.sender] */\n      0xffffffffffffffffffffffffffffffffffffffff\n      and\n      0xffffffffffffffffffffffffffffffffffffffff\n      and\n      dup2\n      mstore\n      0x20\n      add\n      swap1\n      dup2\n      mstore\n      0x20\n      add\n      0x00\n      keccak256\n        /* \"contracts/Gitmod.sol\":1354:1355  I */\n      dup3\n        /* \"contracts/Gitmod.sol\":1331:1356  AccessList[msg.sender][I] */\n      dup2\n      sload\n      dup2\n      lt\n      tag_49\n      jumpi\n      tag_50\n      tag_35\n      jump\t// in\n    tag_50:\n    tag_49:\n      swap1\n      0x00\n      mstore\n      keccak256(0x00, 0x20)\n      add\n        /* \"contracts/Gitmod.sol\":1331:1361  AccessList[msg.sender][I].User */\n      0x00\n      add\n      0x00\n      swap1\n      sload\n      swap1\n      0x0100\n      exp\n      swap1\n      div\n      0xffffffffffffffffffffffffffffffffffffffff\n      and\n        /* \"contracts/Gitmod.sol\":1331:1367  AccessList[msg.sender][I].User==User */\n      0xffffffffffffffffffffffffffffffffffffffff\n      and\n      sub\n        /* \"contracts/Gitmod.sol\":1328:1446  if(AccessList[msg.sender][I].User==User){... */\n      tag_52\n      jumpi\n        /* \"contracts/Gitmod.sol\":1422:1427  false */\n      0x00\n        /* \"contracts/Gitmod.sol\":1390:1400  AccessList */\n      0x03\n        /* \"contracts/Gitmod.sol\":1390:1412  AccessList[msg.sender] */\n      0x00\n        /* \"contracts/Gitmod.sol\":1401:1411  msg.sender */\n      caller\n        /* \"contracts/Gitmod.sol\":1390:1412  AccessList[msg.sender] */\n      0xffffffffffffffffffffffffffffffffffffffff\n      and\n      0xffffffffffffffffffffffffffffffffffffffff\n      and\n      dup2\n      mstore\n      0x20\n      add\n      swap1\n      dup2\n      mstore\n      0x20\n      add\n      0x00\n      keccak256\n        /* \"contracts/Gitmod.sol\":1413:1414  I */\n      dup3\n        /* \"contracts/Gitmod.sol\":1390:1415  AccessList[msg.sender][I] */\n      dup2\n      sload\n      dup2\n      lt\n      tag_53\n      jumpi\n      tag_54\n      tag_35\n      jump\t// in\n    tag_54:\n    tag_53:\n      swap1\n      0x00\n      mstore\n      keccak256(0x00, 0x20)\n      add\n        /* \"contracts/Gitmod.sol\":1390:1421  AccessList[msg.sender][I].Allow */\n      0x00\n      add\n      0x14\n        /* \"contracts/Gitmod.sol\":1390:1427  AccessList[msg.sender][I].Allow=false */\n      0x0100\n      exp\n      dup2\n      sload\n      dup2\n      0xff\n      mul\n      not\n      and\n      swap1\n      dup4\n      iszero\n      iszero\n      mul\n      or\n      swap1\n      sstore\n      pop\n        /* \"contracts/Gitmod.sol\":1328:1446  if(AccessList[msg.sender][I].User==User){... */\n    tag_52:\n        /* \"contracts/Gitmod.sol\":1306:1309  I++ */\n      dup1\n      dup1\n      tag_56\n      swap1\n      tag_42\n      jump\t// in\n    tag_56:\n      swap2\n      pop\n      pop\n        /* \"contracts/Gitmod.sol\":1260:1460  for(uint I=0; I<AccessList[msg.sender].length;I++){... */\n      jump(tag_46)\n    tag_47:\n      pop\n        /* \"contracts/Gitmod.sol\":1164:1466  function DisAllow(address User) public {... */\n      pop\n      jump\t// out\n        /* \"contracts/Gitmod.sol\":468:666  function Display(address User) external view returns (string[] memory) {... */\n    tag_17:\n        /* \"contracts/Gitmod.sol\":522:537  string[] memory */\n      0x60\n        /* \"contracts/Gitmod.sol\":565:575  msg.sender */\n      caller\n        /* \"contracts/Gitmod.sol\":557:575  User == msg.sender */\n      0xffffffffffffffffffffffffffffffffffffffff\n      and\n        /* \"contracts/Gitmod.sol\":557:561  User */\n      dup3\n        /* \"contracts/Gitmod.sol\":557:575  User == msg.sender */\n      0xffffffffffffffffffffffffffffffffffffffff\n      and\n      eq\n        /* \"contracts/Gitmod.sol\":557:606  User == msg.sender || Ownership[User][msg.sender] */\n      dup1\n      tag_58\n      jumpi\n      pop\n        /* \"contracts/Gitmod.sol\":579:588  Ownership */\n      0x01\n        /* \"contracts/Gitmod.sol\":579:594  Ownership[User] */\n      0x00\n        /* \"contracts/Gitmod.sol\":589:593  User */\n      dup4\n        /* \"contracts/Gitmod.sol\":579:594  Ownership[User] */\n      0xffffffffffffffffffffffffffffffffffffffff\n      and\n      0xffffffffffffffffffffffffffffffffffffffff\n      and\n      dup2\n      mstore\n      0x20\n      add\n      swap1\n      dup2\n      mstore\n      0x20\n      add\n      0x00\n      keccak256\n        /* \"contracts/Gitmod.sol\":579:606  Ownership[User][msg.sender] */\n      0x00\n        /* \"contracts/Gitmod.sol\":595:605  msg.sender */\n      caller\n        /* \"contracts/Gitmod.sol\":579:606  Ownership[User][msg.sender] */\n      0xffffffffffffffffffffffffffffffffffffffff\n      and\n      0xffffffffffffffffffffffffffffffffffffffff\n      and\n      dup2\n      mstore\n      0x20\n      add\n      swap1\n      dup2\n      mstore\n      0x20\n      add\n      0x00\n      keccak256\n      0x00\n      swap1\n      sload\n      swap1\n      0x0100\n      exp\n      swap1\n      div\n      0xff\n      and\n        /* \"contracts/Gitmod.sol\":557:606  User == msg.sender || Ownership[User][msg.sender] */\n    tag_58:\n        /* \"contracts/Gitmod.sol\":549:631  require(User == msg.sender || Ownership[User][msg.sender],\"You Don't Have Access\") */\n      tag_59\n      jumpi\n      mload(0x40)\n      0x08c379a000000000000000000000000000000000000000000000000000000000\n      dup2\n      mstore\n      0x04\n      add\n      tag_60\n      swap1\n      tag_61\n      jump\t// in\n    tag_60:\n      mload(0x40)\n      dup1\n      swap2\n      sub\n      swap1\n      revert\n    tag_59:\n        /* \"contracts/Gitmod.sol\":648:653  Links */\n      0x00\n        /* \"contracts/Gitmod.sol\":648:659  Links[User] */\n      dup1\n        /* \"contracts/Gitmod.sol\":654:658  User */\n      dup4\n        /* \"contracts/Gitmod.sol\":648:659  Links[User] */\n      0xffffffffffffffffffffffffffffffffffffffff\n      and\n      0xffffffffffffffffffffffffffffffffffffffff\n      and\n      dup2\n      mstore\n      0x20\n      add\n      swap1\n      dup2\n      mstore\n      0x20\n      add\n      0x00\n      keccak256\n        /* \"contracts/Gitmod.sol\":641:659  return Links[User] */\n      dup1\n      sload\n      dup1\n      0x20\n      mul\n      0x20\n      add\n      mload(0x40)\n      swap1\n      dup2\n      add\n      0x40\n      mstore\n      dup1\n      swap3\n      swap2\n      swap1\n      dup2\n      dup2\n      mstore\n      0x20\n      add\n      0x00\n      swap1\n    tag_62:\n      dup3\n      dup3\n      lt\n      iszero\n      tag_63\n      jumpi\n      dup4\n      dup3\n      swap1\n      0x00\n      mstore\n      keccak256(0x00, 0x20)\n      add\n      dup1\n      sload\n      tag_65\n      swap1\n      tag_66\n      jump\t// in\n    tag_65:\n      dup1\n      0x1f\n      add\n      0x20\n      dup1\n      swap2\n      div\n      mul\n      0x20\n      add\n      mload(0x40)\n      swap1\n      dup2\n      add\n      0x40\n      mstore\n      dup1\n      swap3\n      swap2\n      swap1\n      dup2\n      dup2\n      mstore\n      0x20\n      add\n      dup3\n      dup1\n      sload\n      tag_67\n      swap1\n      tag_66\n      jump\t// in\n    tag_67:\n      dup1\n      iszero\n      tag_68\n      jumpi\n      dup1\n      0x1f\n      lt\n      tag_69\n      jumpi\n      0x0100\n      dup1\n      dup4\n      sload\n      div\n      mul\n      dup4\n      mstore\n      swap2\n      0x20\n      add\n      swap2\n      jump(tag_68)\n    tag_69:\n      dup3\n      add\n      swap2\n      swap1\n      0x00\n      mstore\n      keccak256(0x00, 0x20)\n      swap1\n    tag_70:\n      dup2\n      sload\n      dup2\n      mstore\n      swap1\n      0x01\n      add\n      swap1\n      0x20\n      add\n      dup1\n      dup4\n      gt\n      tag_70\n      jumpi\n      dup3\n      swap1\n      sub\n      0x1f\n      and\n      dup3\n      add\n      swap2\n    tag_68:\n      pop\n      pop\n      pop\n      pop\n      pop\n      dup2\n      mstore\n      0x20\n      add\n      swap1\n      0x01\n      add\n      swap1\n      jump(tag_62)\n    tag_63:\n      pop\n      pop\n      pop\n      pop\n      swap1\n      pop\n        /* \"contracts/Gitmod.sol\":468:666  function Display(address User) external view returns (string[] memory) {... */\n      swap2\n      swap1\n      pop\n      jump\t// out\n        /* \"contracts/Gitmod.sol\":366:462  function Upload(address User, string memory URL) external {... */\n    tag_23:\n        /* \"contracts/Gitmod.sol\":434:439  Links */\n      0x00\n        /* \"contracts/Gitmod.sol\":434:445  Links[User] */\n      dup1\n        /* \"contracts/Gitmod.sol\":440:444  User */\n      dup4\n        /* \"contracts/Gitmod.sol\":434:445  Links[User] */\n      0xffffffffffffffffffffffffffffffffffffffff\n      and\n      0xffffffffffffffffffffffffffffffffffffffff\n      and\n      dup2\n      mstore\n      0x20\n      add\n      swap1\n      dup2\n      mstore\n      0x20\n      add\n      0x00\n      keccak256\n        /* \"contracts/Gitmod.sol\":451:454  URL */\n      dup2\n        /* \"contracts/Gitmod.sol\":434:455  Links[User].push(URL) */\n      swap1\n      dup1\n      0x01\n      dup2\n      sload\n      add\n      dup1\n      dup3\n      sstore\n      dup1\n      swap2\n      pop\n      pop\n      0x01\n      swap1\n      sub\n      swap1\n      0x00\n      mstore\n      keccak256(0x00, 0x20)\n      add\n      0x00\n      swap1\n      swap2\n      swap1\n      swap2\n      swap1\n      swap2\n      pop\n      swap1\n      dup2\n      tag_73\n      swap2\n      swap1\n      tag_74\n      jump\t// in\n    tag_73:\n      pop\n        /* \"contracts/Gitmod.sol\":366:462  function Upload(address User, string memory URL) external {... */\n      pop\n      pop\n      jump\t// out\n        /* \"contracts/Gitmod.sol\":1471:1578  function ShareAccess() public view returns (Access[] memory) {... */\n    tag_25:\n        /* \"contracts/Gitmod.sol\":1515:1530  Access[] memory */\n      0x60\n        /* \"contracts/Gitmod.sol\":1549:1559  AccessList */\n      0x03\n        /* \"contracts/Gitmod.sol\":1549:1571  AccessList[msg.sender] */\n      0x00\n        /* \"contracts/Gitmod.sol\":1560:1570  msg.sender */\n      caller\n        /* \"contracts/Gitmod.sol\":1549:1571  AccessList[msg.sender] */\n      0xffffffffffffffffffffffffffffffffffffffff\n      and\n      0xffffffffffffffffffffffffffffffffffffffff\n      and\n      dup2\n      mstore\n      0x20\n      add\n      swap1\n      dup2\n      mstore\n      0x20\n      add\n      0x00\n      keccak256\n        /* \"contracts/Gitmod.sol\":1542:1571  return AccessList[msg.sender] */\n      dup1\n      sload\n      dup1\n      0x20\n      mul\n      0x20\n      add\n      mload(0x40)\n      swap1\n      dup2\n      add\n      0x40\n      mstore\n      dup1\n      swap3\n      swap2\n      swap1\n      dup2\n      dup2\n      mstore\n      0x20\n      add\n      0x00\n      swap1\n    tag_76:\n      dup3\n      dup3\n      lt\n      iszero\n      tag_77\n      jumpi\n      dup4\n      dup3\n      swap1\n      0x00\n      mstore\n      keccak256(0x00, 0x20)\n      add\n      mload(0x40)\n      dup1\n      0x40\n      add\n      0x40\n      mstore\n      swap1\n      dup2\n      0x00\n      dup3\n      add\n      0x00\n      swap1\n      sload\n      swap1\n      0x0100\n      exp\n      swap1\n      div\n      0xffffffffffffffffffffffffffffffffffffffff\n      and\n      0xffffffffffffffffffffffffffffffffffffffff\n      and\n      0xffffffffffffffffffffffffffffffffffffffff\n      and\n      dup2\n      mstore\n      0x20\n      add\n      0x00\n      dup3\n      add\n      0x14\n      swap1\n      sload\n      swap1\n      0x0100\n      exp\n      swap1\n      div\n      0xff\n      and\n      iszero\n      iszero\n      iszero\n      iszero\n      dup2\n      mstore\n      pop\n      pop\n      dup2\n      mstore\n      0x20\n      add\n      swap1\n      0x01\n      add\n      swap1\n      jump(tag_76)\n    tag_77:\n      pop\n      pop\n      pop\n      pop\n      swap1\n      pop\n        /* \"contracts/Gitmod.sol\":1471:1578  function ShareAccess() public view returns (Access[] memory) {... */\n      swap1\n      jump\t// out\n        /* \"#utility.yul\":7:82   */\n    tag_79:\n        /* \"#utility.yul\":40:46   */\n      0x00\n        /* \"#utility.yul\":73:75   */\n      0x40\n        /* \"#utility.yul\":67:76   */\n      mload\n        /* \"#utility.yul\":57:76   */\n      swap1\n      pop\n        /* \"#utility.yul\":7:82   */\n      swap1\n      jump\t// out\n        /* \"#utility.yul\":88:205   */\n    tag_80:\n        /* \"#utility.yul\":197:198   */\n      0x00\n        /* \"#utility.yul\":194:195   */\n      dup1\n        /* \"#utility.yul\":187:199   */\n      revert\n        /* \"#utility.yul\":211:328   */\n    tag_81:\n        /* \"#utility.yul\":320:321   */\n      0x00\n        /* \"#utility.yul\":317:318   */\n      dup1\n        /* \"#utility.yul\":310:322   */\n      revert\n        /* \"#utility.yul\":334:460   */\n    tag_82:\n        /* \"#utility.yul\":371:378   */\n      0x00\n        /* \"#utility.yul\":411:453   */\n      0xffffffffffffffffffffffffffffffffffffffff\n        /* \"#utility.yul\":404:409   */\n      dup3\n        /* \"#utility.yul\":400:454   */\n      and\n        /* \"#utility.yul\":389:454   */\n      swap1\n      pop\n        /* \"#utility.yul\":334:460   */\n      swap2\n      swap1\n      pop\n      jump\t// out\n        /* \"#utility.yul\":466:562   */\n    tag_83:\n        /* \"#utility.yul\":503:510   */\n      0x00\n        /* \"#utility.yul\":532:556   */\n      tag_143\n        /* \"#utility.yul\":550:555   */\n      dup3\n        /* \"#utility.yul\":532:556   */\n      tag_82\n      jump\t// in\n    tag_143:\n        /* \"#utility.yul\":521:556   */\n      swap1\n      pop\n        /* \"#utility.yul\":466:562   */\n      swap2\n      swap1\n      pop\n      jump\t// out\n        /* \"#utility.yul\":568:690   */\n    tag_84:\n        /* \"#utility.yul\":641:665   */\n      tag_145\n        /* \"#utility.yul\":659:664   */\n      dup2\n        /* \"#utility.yul\":641:665   */\n      tag_83\n      jump\t// in\n    tag_145:\n        /* \"#utility.yul\":634:639   */\n      dup2\n        /* \"#utility.yul\":631:666   */\n      eq\n        /* \"#utility.yul\":621:684   */\n      tag_146\n      jumpi\n        /* \"#utility.yul\":680:681   */\n      0x00\n        /* \"#utility.yul\":677:678   */\n      dup1\n        /* \"#utility.yul\":670:682   */\n      revert\n        /* \"#utility.yul\":621:684   */\n    tag_146:\n        /* \"#utility.yul\":568:690   */\n      pop\n      jump\t// out\n        /* \"#utility.yul\":696:835   */\n    tag_85:\n        /* \"#utility.yul\":742:747   */\n      0x00\n        /* \"#utility.yul\":780:786   */\n      dup2\n        /* \"#utility.yul\":767:787   */\n      calldataload\n        /* \"#utility.yul\":758:787   */\n      swap1\n      pop\n        /* \"#utility.yul\":796:829   */\n      tag_148\n        /* \"#utility.yul\":823:828   */\n      dup2\n        /* \"#utility.yul\":796:829   */\n      tag_84\n      jump\t// in\n    tag_148:\n        /* \"#utility.yul\":696:835   */\n      swap3\n      swap2\n      pop\n      pop\n      jump\t// out\n        /* \"#utility.yul\":841:1170   */\n    tag_10:\n        /* \"#utility.yul\":900:906   */\n      0x00\n        /* \"#utility.yul\":949:951   */\n      0x20\n        /* \"#utility.yul\":937:946   */\n      dup3\n        /* \"#utility.yul\":928:935   */\n      dup5\n        /* \"#utility.yul\":924:947   */\n      sub\n        /* \"#utility.yul\":920:952   */\n      slt\n        /* \"#utility.yul\":917:1036   */\n      iszero\n      tag_150\n      jumpi\n        /* \"#utility.yul\":955:1034   */\n      tag_151\n      tag_80\n      jump\t// in\n    tag_151:\n        /* \"#utility.yul\":917:1036   */\n    tag_150:\n        /* \"#utility.yul\":1075:1076   */\n      0x00\n        /* \"#utility.yul\":1100:1153   */\n      tag_152\n        /* \"#utility.yul\":1145:1152   */\n      dup5\n        /* \"#utility.yul\":1136:1142   */\n      dup3\n        /* \"#utility.yul\":1125:1134   */\n      dup6\n        /* \"#utility.yul\":1121:1143   */\n      add\n        /* \"#utility.yul\":1100:1153   */\n      tag_85\n      jump\t// in\n    tag_152:\n        /* \"#utility.yul\":1090:1153   */\n      swap2\n      pop\n        /* \"#utility.yul\":1046:1163   */\n      pop\n        /* \"#utility.yul\":841:1170   */\n      swap3\n      swap2\n      pop\n      pop\n      jump\t// out\n        /* \"#utility.yul\":1176:1300   */\n    tag_86:\n        /* \"#utility.yul\":1253:1259   */\n      0x00\n        /* \"#utility.yul\":1287:1292   */\n      dup2\n        /* \"#utility.yul\":1281:1293   */\n      mload\n        /* \"#utility.yul\":1271:1293   */\n      swap1\n      pop\n        /* \"#utility.yul\":1176:1300   */\n      swap2\n      swap1\n      pop\n      jump\t// out\n        /* \"#utility.yul\":1306:1500   */\n    tag_87:\n        /* \"#utility.yul\":1415:1426   */\n      0x00\n        /* \"#utility.yul\":1449:1455   */\n      dup3\n        /* \"#utility.yul\":1444:1447   */\n      dup3\n        /* \"#utility.yul\":1437:1456   */\n      mstore\n        /* \"#utility.yul\":1489:1493   */\n      0x20\n        /* \"#utility.yul\":1484:1487   */\n      dup3\n        /* \"#utility.yul\":1480:1494   */\n      add\n        /* \"#utility.yul\":1465:1494   */\n      swap1\n      pop\n        /* \"#utility.yul\":1306:1500   */\n      swap3\n      swap2\n      pop\n      pop\n      jump\t// out\n        /* \"#utility.yul\":1506:1648   */\n    tag_88:\n        /* \"#utility.yul\":1583:1587   */\n      0x00\n        /* \"#utility.yul\":1606:1609   */\n      dup2\n        /* \"#utility.yul\":1598:1609   */\n      swap1\n      pop\n        /* \"#utility.yul\":1636:1640   */\n      0x20\n        /* \"#utility.yul\":1631:1634   */\n      dup3\n        /* \"#utility.yul\":1627:1641   */\n      add\n        /* \"#utility.yul\":1619:1641   */\n      swap1\n      pop\n        /* \"#utility.yul\":1506:1648   */\n      swap2\n      swap1\n      pop\n      jump\t// out\n        /* \"#utility.yul\":1654:1753   */\n    tag_89:\n        /* \"#utility.yul\":1706:1712   */\n      0x00\n        /* \"#utility.yul\":1740:1745   */\n      dup2\n        /* \"#utility.yul\":1734:1746   */\n      mload\n        /* \"#utility.yul\":1724:1746   */\n      swap1\n      pop\n        /* \"#utility.yul\":1654:1753   */\n      swap2\n      swap1\n      pop\n      jump\t// out\n        /* \"#utility.yul\":1759:1918   */\n    tag_90:\n        /* \"#utility.yul\":1833:1844   */\n      0x00\n        /* \"#utility.yul\":1867:1873   */\n      dup3\n        /* \"#utility.yul\":1862:1865   */\n      dup3\n        /* \"#utility.yul\":1855:1874   */\n      mstore\n        /* \"#utility.yul\":1907:1911   */\n      0x20\n        /* \"#utility.yul\":1902:1905   */\n      dup3\n        /* \"#utility.yul\":1898:1912   */\n      add\n        /* \"#utility.yul\":1883:1912   */\n      swap1\n      pop\n        /* \"#utility.yul\":1759:1918   */\n      swap3\n      swap2\n      pop\n      pop\n      jump\t// out\n        /* \"#utility.yul\":1924:2170   */\n    tag_91:\n        /* \"#utility.yul\":2005:2006   */\n      0x00\n        /* \"#utility.yul\":2015:2128   */\n    tag_159:\n        /* \"#utility.yul\":2029:2035   */\n      dup4\n        /* \"#utility.yul\":2026:2027   */\n      dup2\n        /* \"#utility.yul\":2023:2036   */\n      lt\n        /* \"#utility.yul\":2015:2128   */\n      iszero\n      tag_161\n      jumpi\n        /* \"#utility.yul\":2114:2115   */\n      dup1\n        /* \"#utility.yul\":2109:2112   */\n      dup3\n        /* \"#utility.yul\":2105:2116   */\n      add\n        /* \"#utility.yul\":2099:2117   */\n      mload\n        /* \"#utility.yul\":2095:2096   */\n      dup2\n        /* \"#utility.yul\":2090:2093   */\n      dup5\n        /* \"#utility.yul\":2086:2097   */\n      add\n        /* \"#utility.yul\":2079:2118   */\n      mstore\n        /* \"#utility.yul\":2051:2053   */\n      0x20\n        /* \"#utility.yul\":2048:2049   */\n      dup2\n        /* \"#utility.yul\":2044:2054   */\n      add\n        /* \"#utility.yul\":2039:2054   */\n      swap1\n      pop\n        /* \"#utility.yul\":2015:2128   */\n      jump(tag_159)\n    tag_161:\n        /* \"#utility.yul\":2162:2163   */\n      0x00\n        /* \"#utility.yul\":2153:2159   */\n      dup5\n        /* \"#utility.yul\":2148:2151   */\n      dup5\n        /* \"#utility.yul\":2144:2160   */\n      add\n        /* \"#utility.yul\":2137:2164   */\n      mstore\n        /* \"#utility.yul\":1986:2170   */\n      pop\n        /* \"#utility.yul\":1924:2170   */\n      pop\n      pop\n      pop\n      jump\t// out\n        /* \"#utility.yul\":2176:2278   */\n    tag_92:\n        /* \"#utility.yul\":2217:2223   */\n      0x00\n        /* \"#utility.yul\":2268:2270   */\n      0x1f\n        /* \"#utility.yul\":2264:2271   */\n      not\n        /* \"#utility.yul\":2259:2261   */\n      0x1f\n        /* \"#utility.yul\":2252:2257   */\n      dup4\n        /* \"#utility.yul\":2248:2262   */\n      add\n        /* \"#utility.yul\":2244:2272   */\n      and\n        /* \"#utility.yul\":2234:2272   */\n      swap1\n      pop\n        /* \"#utility.yul\":2176:2278   */\n      swap2\n      swap1\n      pop\n      jump\t// out\n        /* \"#utility.yul\":2284:2641   */\n    tag_93:\n        /* \"#utility.yul\":2362:2365   */\n      0x00\n        /* \"#utility.yul\":2390:2429   */\n      tag_164\n        /* \"#utility.yul\":2423:2428   */\n      dup3\n        /* \"#utility.yul\":2390:2429   */\n      tag_89\n      jump\t// in\n    tag_164:\n        /* \"#utility.yul\":2445:2506   */\n      tag_165\n        /* \"#utility.yul\":2499:2505   */\n      dup2\n        /* \"#utility.yul\":2494:2497   */\n      dup6\n        /* \"#utility.yul\":2445:2506   */\n      tag_90\n      jump\t// in\n    tag_165:\n        /* \"#utility.yul\":2438:2506   */\n      swap4\n      pop\n        /* \"#utility.yul\":2515:2580   */\n      tag_166\n        /* \"#utility.yul\":2573:2579   */\n      dup2\n        /* \"#utility.yul\":2568:2571   */\n      dup6\n        /* \"#utility.yul\":2561:2565   */\n      0x20\n        /* \"#utility.yul\":2554:2559   */\n      dup7\n        /* \"#utility.yul\":2550:2566   */\n      add\n        /* \"#utility.yul\":2515:2580   */\n      tag_91\n      jump\t// in\n    tag_166:\n        /* \"#utility.yul\":2605:2634   */\n      tag_167\n        /* \"#utility.yul\":2627:2633   */\n      dup2\n        /* \"#utility.yul\":2605:2634   */\n      tag_92\n      jump\t// in\n    tag_167:\n        /* \"#utility.yul\":2600:2603   */\n      dup5\n        /* \"#utility.yul\":2596:2635   */\n      add\n        /* \"#utility.yul\":2589:2635   */\n      swap2\n      pop\n        /* \"#utility.yul\":2366:2641   */\n      pop\n        /* \"#utility.yul\":2284:2641   */\n      swap3\n      swap2\n      pop\n      pop\n      jump\t// out\n        /* \"#utility.yul\":2647:2843   */\n    tag_94:\n        /* \"#utility.yul\":2736:2746   */\n      0x00\n        /* \"#utility.yul\":2771:2837   */\n      tag_169\n        /* \"#utility.yul\":2833:2836   */\n      dup4\n        /* \"#utility.yul\":2825:2831   */\n      dup4\n        /* \"#utility.yul\":2771:2837   */\n      tag_93\n      jump\t// in\n    tag_169:\n        /* \"#utility.yul\":2757:2837   */\n      swap1\n      pop\n        /* \"#utility.yul\":2647:2843   */\n      swap3\n      swap2\n      pop\n      pop\n      jump\t// out\n        /* \"#utility.yul\":2849:2972   */\n    tag_95:\n        /* \"#utility.yul\":2929:2933   */\n      0x00\n        /* \"#utility.yul\":2961:2965   */\n      0x20\n        /* \"#utility.yul\":2956:2959   */\n      dup3\n        /* \"#utility.yul\":2952:2966   */\n      add\n        /* \"#utility.yul\":2944:2966   */\n      swap1\n      pop\n        /* \"#utility.yul\":2849:2972   */\n      swap2\n      swap1\n      pop\n      jump\t// out\n        /* \"#utility.yul\":3006:3997   */\n    tag_96:\n        /* \"#utility.yul\":3145:3148   */\n      0x00\n        /* \"#utility.yul\":3174:3238   */\n      tag_172\n        /* \"#utility.yul\":3232:3237   */\n      dup3\n        /* \"#utility.yul\":3174:3238   */\n      tag_86\n      jump\t// in\n    tag_172:\n        /* \"#utility.yul\":3254:3350   */\n      tag_173\n        /* \"#utility.yul\":3343:3349   */\n      dup2\n        /* \"#utility.yul\":3338:3341   */\n      dup6\n        /* \"#utility.yul\":3254:3350   */\n      tag_87\n      jump\t// in\n    tag_173:\n        /* \"#utility.yul\":3247:3350   */\n      swap4\n      pop\n        /* \"#utility.yul\":3376:3379   */\n      dup4\n        /* \"#utility.yul\":3421:3425   */\n      0x20\n        /* \"#utility.yul\":3413:3419   */\n      dup3\n        /* \"#utility.yul\":3409:3426   */\n      mul\n        /* \"#utility.yul\":3404:3407   */\n      dup6\n        /* \"#utility.yul\":3400:3427   */\n      add\n        /* \"#utility.yul\":3451:3517   */\n      tag_174\n        /* \"#utility.yul\":3511:3516   */\n      dup6\n        /* \"#utility.yul\":3451:3517   */\n      tag_88\n      jump\t// in\n    tag_174:\n        /* \"#utility.yul\":3540:3547   */\n      dup1\n        /* \"#utility.yul\":3571:3572   */\n      0x00\n        /* \"#utility.yul\":3556:3952   */\n    tag_175:\n        /* \"#utility.yul\":3581:3587   */\n      dup6\n        /* \"#utility.yul\":3578:3579   */\n      dup2\n        /* \"#utility.yul\":3575:3588   */\n      lt\n        /* \"#utility.yul\":3556:3952   */\n      iszero\n      tag_177\n      jumpi\n        /* \"#utility.yul\":3652:3661   */\n      dup5\n        /* \"#utility.yul\":3646:3650   */\n      dup5\n        /* \"#utility.yul\":3642:3662   */\n      sub\n        /* \"#utility.yul\":3637:3640   */\n      dup10\n        /* \"#utility.yul\":3630:3663   */\n      mstore\n        /* \"#utility.yul\":3703:3709   */\n      dup2\n        /* \"#utility.yul\":3697:3710   */\n      mload\n        /* \"#utility.yul\":3731:3815   */\n      tag_178\n        /* \"#utility.yul\":3810:3814   */\n      dup6\n        /* \"#utility.yul\":3795:3808   */\n      dup3\n        /* \"#utility.yul\":3731:3815   */\n      tag_94\n      jump\t// in\n    tag_178:\n        /* \"#utility.yul\":3723:3815   */\n      swap5\n      pop\n        /* \"#utility.yul\":3838:3908   */\n      tag_179\n        /* \"#utility.yul\":3901:3907   */\n      dup4\n        /* \"#utility.yul\":3838:3908   */\n      tag_95\n      jump\t// in\n    tag_179:\n        /* \"#utility.yul\":3828:3908   */\n      swap3\n      pop\n        /* \"#utility.yul\":3937:3941   */\n      0x20\n        /* \"#utility.yul\":3932:3935   */\n      dup11\n        /* \"#utility.yul\":3928:3942   */\n      add\n        /* \"#utility.yul\":3921:3942   */\n      swap10\n      pop\n        /* \"#utility.yul\":3616:3952   */\n      pop\n        /* \"#utility.yul\":3603:3604   */\n      0x01\n        /* \"#utility.yul\":3600:3601   */\n      dup2\n        /* \"#utility.yul\":3596:3605   */\n      add\n        /* \"#utility.yul\":3591:3605   */\n      swap1\n      pop\n        /* \"#utility.yul\":3556:3952   */\n      jump(tag_175)\n    tag_177:\n        /* \"#utility.yul\":3560:3574   */\n      pop\n        /* \"#utility.yul\":3968:3972   */\n      dup3\n        /* \"#utility.yul\":3961:3972   */\n      swap8\n      pop\n        /* \"#utility.yul\":3988:3991   */\n      dup8\n        /* \"#utility.yul\":3981:3991   */\n      swap6\n      pop\n        /* \"#utility.yul\":3150:3997   */\n      pop\n      pop\n      pop\n      pop\n      pop\n        /* \"#utility.yul\":3006:3997   */\n      swap3\n      swap2\n      pop\n      pop\n      jump\t// out\n        /* \"#utility.yul\":4003:4416   */\n    tag_19:\n        /* \"#utility.yul\":4166:4170   */\n      0x00\n        /* \"#utility.yul\":4204:4206   */\n      0x20\n        /* \"#utility.yul\":4193:4202   */\n      dup3\n        /* \"#utility.yul\":4189:4207   */\n      add\n        /* \"#utility.yul\":4181:4207   */\n      swap1\n      pop\n        /* \"#utility.yul\":4253:4262   */\n      dup2\n        /* \"#utility.yul\":4247:4251   */\n      dup2\n        /* \"#utility.yul\":4243:4263   */\n      sub\n        /* \"#utility.yul\":4239:4240   */\n      0x00\n        /* \"#utility.yul\":4228:4237   */\n      dup4\n        /* \"#utility.yul\":4224:4241   */\n      add\n        /* \"#utility.yul\":4217:4264   */\n      mstore\n        /* \"#utility.yul\":4281:4409   */\n      tag_181\n        /* \"#utility.yul\":4404:4408   */\n      dup2\n        /* \"#utility.yul\":4395:4401   */\n      dup5\n        /* \"#utility.yul\":4281:4409   */\n      tag_96\n      jump\t// in\n    tag_181:\n        /* \"#utility.yul\":4273:4409   */\n      swap1\n      pop\n        /* \"#utility.yul\":4003:4416   */\n      swap3\n      swap2\n      pop\n      pop\n      jump\t// out\n        /* \"#utility.yul\":4422:4539   */\n    tag_97:\n        /* \"#utility.yul\":4531:4532   */\n      0x00\n        /* \"#utility.yul\":4528:4529   */\n      dup1\n        /* \"#utility.yul\":4521:4533   */\n      revert\n        /* \"#utility.yul\":4545:4662   */\n    tag_98:\n        /* \"#utility.yul\":4654:4655   */\n      0x00\n        /* \"#utility.yul\":4651:4652   */\n      dup1\n        /* \"#utility.yul\":4644:4656   */\n      revert\n        /* \"#utility.yul\":4668:4848   */\n    tag_99:\n        /* \"#utility.yul\":4716:4793   */\n      0x4e487b7100000000000000000000000000000000000000000000000000000000\n        /* \"#utility.yul\":4713:4714   */\n      0x00\n        /* \"#utility.yul\":4706:4794   */\n      mstore\n        /* \"#utility.yul\":4813:4817   */\n      0x41\n        /* \"#utility.yul\":4810:4811   */\n      0x04\n        /* \"#utility.yul\":4803:4818   */\n      mstore\n        /* \"#utility.yul\":4837:4841   */\n      0x24\n        /* \"#utility.yul\":4834:4835   */\n      0x00\n        /* \"#utility.yul\":4827:4842   */\n      revert\n        /* \"#utility.yul\":4854:5135   */\n    tag_100:\n        /* \"#utility.yul\":4937:4964   */\n      tag_186\n        /* \"#utility.yul\":4959:4963   */\n      dup3\n        /* \"#utility.yul\":4937:4964   */\n      tag_92\n      jump\t// in\n    tag_186:\n        /* \"#utility.yul\":4929:4935   */\n      dup2\n        /* \"#utility.yul\":4925:4965   */\n      add\n        /* \"#utility.yul\":5067:5073   */\n      dup2\n        /* \"#utility.yul\":5055:5065   */\n      dup2\n        /* \"#utility.yul\":5052:5074   */\n      lt\n        /* \"#utility.yul\":5031:5049   */\n      0xffffffffffffffff\n        /* \"#utility.yul\":5019:5029   */\n      dup3\n        /* \"#utility.yul\":5016:5050   */\n      gt\n        /* \"#utility.yul\":5013:5075   */\n      or\n        /* \"#utility.yul\":5010:5098   */\n      iszero\n      tag_187\n      jumpi\n        /* \"#utility.yul\":5078:5096   */\n      tag_188\n      tag_99\n      jump\t// in\n    tag_188:\n        /* \"#utility.yul\":5010:5098   */\n    tag_187:\n        /* \"#utility.yul\":5118:5128   */\n      dup1\n        /* \"#utility.yul\":5114:5116   */\n      0x40\n        /* \"#utility.yul\":5107:5129   */\n      mstore\n        /* \"#utility.yul\":4897:5135   */\n      pop\n        /* \"#utility.yul\":4854:5135   */\n      pop\n      pop\n      jump\t// out\n        /* \"#utility.yul\":5141:5270   */\n    tag_101:\n        /* \"#utility.yul\":5175:5181   */\n      0x00\n        /* \"#utility.yul\":5202:5222   */\n      tag_190\n      tag_79\n      jump\t// in\n    tag_190:\n        /* \"#utility.yul\":5192:5222   */\n      swap1\n      pop\n        /* \"#utility.yul\":5231:5264   */\n      tag_191\n        /* \"#utility.yul\":5259:5263   */\n      dup3\n        /* \"#utility.yul\":5251:5257   */\n      dup3\n        /* \"#utility.yul\":5231:5264   */\n      tag_100\n      jump\t// in\n    tag_191:\n        /* \"#utility.yul\":5141:5270   */\n      swap2\n      swap1\n      pop\n      jump\t// out\n        /* \"#utility.yul\":5276:5584   */\n    tag_102:\n        /* \"#utility.yul\":5338:5342   */\n      0x00\n        /* \"#utility.yul\":5428:5446   */\n      0xffffffffffffffff\n        /* \"#utility.yul\":5420:5426   */\n      dup3\n        /* \"#utility.yul\":5417:5447   */\n      gt\n        /* \"#utility.yul\":5414:5470   */\n      iszero\n      tag_193\n      jumpi\n        /* \"#utility.yul\":5450:5468   */\n      tag_194\n      tag_99\n      jump\t// in\n    tag_194:\n        /* \"#utility.yul\":5414:5470   */\n    tag_193:\n        /* \"#utility.yul\":5488:5517   */\n      tag_195\n        /* \"#utility.yul\":5510:5516   */\n      dup3\n        /* \"#utility.yul\":5488:5517   */\n      tag_92\n      jump\t// in\n    tag_195:\n        /* \"#utility.yul\":5480:5517   */\n      swap1\n      pop\n        /* \"#utility.yul\":5572:5576   */\n      0x20\n        /* \"#utility.yul\":5566:5570   */\n      dup2\n        /* \"#utility.yul\":5562:5577   */\n      add\n        /* \"#utility.yul\":5554:5577   */\n      swap1\n      pop\n        /* \"#utility.yul\":5276:5584   */\n      swap2\n      swap1\n      pop\n      jump\t// out\n        /* \"#utility.yul\":5590:5736   */\n    tag_103:\n        /* \"#utility.yul\":5687:5693   */\n      dup3\n        /* \"#utility.yul\":5682:5685   */\n      dup2\n        /* \"#utility.yul\":5677:5680   */\n      dup4\n        /* \"#utility.yul\":5664:5694   */\n      calldatacopy\n        /* \"#utility.yul\":5728:5729   */\n      0x00\n        /* \"#utility.yul\":5719:5725   */\n      dup4\n        /* \"#utility.yul\":5714:5717   */\n      dup4\n        /* \"#utility.yul\":5710:5726   */\n      add\n        /* \"#utility.yul\":5703:5730   */\n      mstore\n        /* \"#utility.yul\":5590:5736   */\n      pop\n      pop\n      pop\n      jump\t// out\n        /* \"#utility.yul\":5742:6167   */\n    tag_104:\n        /* \"#utility.yul\":5820:5825   */\n      0x00\n        /* \"#utility.yul\":5845:5911   */\n      tag_198\n        /* \"#utility.yul\":5861:5910   */\n      tag_199\n        /* \"#utility.yul\":5903:5909   */\n      dup5\n        /* \"#utility.yul\":5861:5910   */\n      tag_102\n      jump\t// in\n    tag_199:\n        /* \"#utility.yul\":5845:5911   */\n      tag_101\n      jump\t// in\n    tag_198:\n        /* \"#utility.yul\":5836:5911   */\n      swap1\n      pop\n        /* \"#utility.yul\":5934:5940   */\n      dup3\n        /* \"#utility.yul\":5927:5932   */\n      dup2\n        /* \"#utility.yul\":5920:5941   */\n      mstore\n        /* \"#utility.yul\":5972:5976   */\n      0x20\n        /* \"#utility.yul\":5965:5970   */\n      dup2\n        /* \"#utility.yul\":5961:5977   */\n      add\n        /* \"#utility.yul\":6010:6013   */\n      dup5\n        /* \"#utility.yul\":6001:6007   */\n      dup5\n        /* \"#utility.yul\":5996:5999   */\n      dup5\n        /* \"#utility.yul\":5992:6008   */\n      add\n        /* \"#utility.yul\":5989:6014   */\n      gt\n        /* \"#utility.yul\":5986:6098   */\n      iszero\n      tag_200\n      jumpi\n        /* \"#utility.yul\":6017:6096   */\n      tag_201\n      tag_98\n      jump\t// in\n    tag_201:\n        /* \"#utility.yul\":5986:6098   */\n    tag_200:\n        /* \"#utility.yul\":6107:6161   */\n      tag_202\n        /* \"#utility.yul\":6154:6160   */\n      dup5\n        /* \"#utility.yul\":6149:6152   */\n      dup3\n        /* \"#utility.yul\":6144:6147   */\n      dup6\n        /* \"#utility.yul\":6107:6161   */\n      tag_103\n      jump\t// in\n    tag_202:\n        /* \"#utility.yul\":5826:6167   */\n      pop\n        /* \"#utility.yul\":5742:6167   */\n      swap4\n      swap3\n      pop\n      pop\n      pop\n      jump\t// out\n        /* \"#utility.yul\":6187:6527   */\n    tag_105:\n        /* \"#utility.yul\":6243:6248   */\n      0x00\n        /* \"#utility.yul\":6292:6295   */\n      dup3\n        /* \"#utility.yul\":6285:6289   */\n      0x1f\n        /* \"#utility.yul\":6277:6283   */\n      dup4\n        /* \"#utility.yul\":6273:6290   */\n      add\n        /* \"#utility.yul\":6269:6296   */\n      slt\n        /* \"#utility.yul\":6259:6381   */\n      tag_204\n      jumpi\n        /* \"#utility.yul\":6300:6379   */\n      tag_205\n      tag_97\n      jump\t// in\n    tag_205:\n        /* \"#utility.yul\":6259:6381   */\n    tag_204:\n        /* \"#utility.yul\":6417:6423   */\n      dup2\n        /* \"#utility.yul\":6404:6424   */\n      calldataload\n        /* \"#utility.yul\":6442:6521   */\n      tag_206\n        /* \"#utility.yul\":6517:6520   */\n      dup5\n        /* \"#utility.yul\":6509:6515   */\n      dup3\n        /* \"#utility.yul\":6502:6506   */\n      0x20\n        /* \"#utility.yul\":6494:6500   */\n      dup7\n        /* \"#utility.yul\":6490:6507   */\n      add\n        /* \"#utility.yul\":6442:6521   */\n      tag_104\n      jump\t// in\n    tag_206:\n        /* \"#utility.yul\":6433:6521   */\n      swap2\n      pop\n        /* \"#utility.yul\":6249:6527   */\n      pop\n        /* \"#utility.yul\":6187:6527   */\n      swap3\n      swap2\n      pop\n      pop\n      jump\t// out\n        /* \"#utility.yul\":6533:7187   */\n    tag_22:\n        /* \"#utility.yul\":6611:6617   */\n      0x00\n        /* \"#utility.yul\":6619:6625   */\n      dup1\n        /* \"#utility.yul\":6668:6670   */\n      0x40\n        /* \"#utility.yul\":6656:6665   */\n      dup4\n        /* \"#utility.yul\":6647:6654   */\n      dup6\n        /* \"#utility.yul\":6643:6666   */\n      sub\n        /* \"#utility.yul\":6639:6671   */\n      slt\n        /* \"#utility.yul\":6636:6755   */\n      iszero\n      tag_208\n      jumpi\n        /* \"#utility.yul\":6674:6753   */\n      tag_209\n      tag_80\n      jump\t// in\n    tag_209:\n        /* \"#utility.yul\":6636:6755   */\n    tag_208:\n        /* \"#utility.yul\":6794:6795   */\n      0x00\n        /* \"#utility.yul\":6819:6872   */\n      tag_210\n        /* \"#utility.yul\":6864:6871   */\n      dup6\n        /* \"#utility.yul\":6855:6861   */\n      dup3\n        /* \"#utility.yul\":6844:6853   */\n      dup7\n        /* \"#utility.yul\":6840:6862   */\n      add\n        /* \"#utility.yul\":6819:6872   */\n      tag_85\n      jump\t// in\n    tag_210:\n        /* \"#utility.yul\":6809:6872   */\n      swap3\n      pop\n        /* \"#utility.yul\":6765:6882   */\n      pop\n        /* \"#utility.yul\":6949:6951   */\n      0x20\n        /* \"#utility.yul\":6938:6947   */\n      dup4\n        /* \"#utility.yul\":6934:6952   */\n      add\n        /* \"#utility.yul\":6921:6953   */\n      calldataload\n        /* \"#utility.yul\":6980:6998   */\n      0xffffffffffffffff\n        /* \"#utility.yul\":6972:6978   */\n      dup2\n        /* \"#utility.yul\":6969:6999   */\n      gt\n        /* \"#utility.yul\":6966:7083   */\n      iszero\n      tag_211\n      jumpi\n        /* \"#utility.yul\":7002:7081   */\n      tag_212\n      tag_81\n      jump\t// in\n    tag_212:\n        /* \"#utility.yul\":6966:7083   */\n    tag_211:\n        /* \"#utility.yul\":7107:7170   */\n      tag_213\n        /* \"#utility.yul\":7162:7169   */\n      dup6\n        /* \"#utility.yul\":7153:7159   */\n      dup3\n        /* \"#utility.yul\":7142:7151   */\n      dup7\n        /* \"#utility.yul\":7138:7160   */\n      add\n        /* \"#utility.yul\":7107:7170   */\n      tag_105\n      jump\t// in\n    tag_213:\n        /* \"#utility.yul\":7097:7170   */\n      swap2\n      pop\n        /* \"#utility.yul\":6892:7180   */\n      pop\n        /* \"#utility.yul\":6533:7187   */\n      swap3\n      pop\n      swap3\n      swap1\n      pop\n      jump\t// out\n        /* \"#utility.yul\":7193:7328   */\n    tag_106:\n        /* \"#utility.yul\":7281:7287   */\n      0x00\n        /* \"#utility.yul\":7315:7320   */\n      dup2\n        /* \"#utility.yul\":7309:7321   */\n      mload\n        /* \"#utility.yul\":7299:7321   */\n      swap1\n      pop\n        /* \"#utility.yul\":7193:7328   */\n      swap2\n      swap1\n      pop\n      jump\t// out\n        /* \"#utility.yul\":7334:7539   */\n    tag_107:\n        /* \"#utility.yul\":7454:7465   */\n      0x00\n        /* \"#utility.yul\":7488:7494   */\n      dup3\n        /* \"#utility.yul\":7483:7486   */\n      dup3\n        /* \"#utility.yul\":7476:7495   */\n      mstore\n        /* \"#utility.yul\":7528:7532   */\n      0x20\n        /* \"#utility.yul\":7523:7526   */\n      dup3\n        /* \"#utility.yul\":7519:7533   */\n      add\n        /* \"#utility.yul\":7504:7533   */\n      swap1\n      pop\n        /* \"#utility.yul\":7334:7539   */\n      swap3\n      swap2\n      pop\n      pop\n      jump\t// out\n        /* \"#utility.yul\":7545:7698   */\n    tag_108:\n        /* \"#utility.yul\":7633:7637   */\n      0x00\n        /* \"#utility.yul\":7656:7659   */\n      dup2\n        /* \"#utility.yul\":7648:7659   */\n      swap1\n      pop\n        /* \"#utility.yul\":7686:7690   */\n      0x20\n        /* \"#utility.yul\":7681:7684   */\n      dup3\n        /* \"#utility.yul\":7677:7691   */\n      add\n        /* \"#utility.yul\":7669:7691   */\n      swap1\n      pop\n        /* \"#utility.yul\":7545:7698   */\n      swap2\n      swap1\n      pop\n      jump\t// out\n        /* \"#utility.yul\":7704:7812   */\n    tag_109:\n        /* \"#utility.yul\":7781:7805   */\n      tag_218\n        /* \"#utility.yul\":7799:7804   */\n      dup2\n        /* \"#utility.yul\":7781:7805   */\n      tag_83\n      jump\t// in\n    tag_218:\n        /* \"#utility.yul\":7776:7779   */\n      dup3\n        /* \"#utility.yul\":7769:7806   */\n      mstore\n        /* \"#utility.yul\":7704:7812   */\n      pop\n      pop\n      jump\t// out\n        /* \"#utility.yul\":7818:7908   */\n    tag_110:\n        /* \"#utility.yul\":7852:7859   */\n      0x00\n        /* \"#utility.yul\":7895:7900   */\n      dup2\n        /* \"#utility.yul\":7888:7901   */\n      iszero\n        /* \"#utility.yul\":7881:7902   */\n      iszero\n        /* \"#utility.yul\":7870:7902   */\n      swap1\n      pop\n        /* \"#utility.yul\":7818:7908   */\n      swap2\n      swap1\n      pop\n      jump\t// out\n        /* \"#utility.yul\":7914:8013   */\n    tag_111:\n        /* \"#utility.yul\":7985:8006   */\n      tag_221\n        /* \"#utility.yul\":8000:8005   */\n      dup2\n        /* \"#utility.yul\":7985:8006   */\n      tag_110\n      jump\t// in\n    tag_221:\n        /* \"#utility.yul\":7980:7983   */\n      dup3\n        /* \"#utility.yul\":7973:8007   */\n      mstore\n        /* \"#utility.yul\":7914:8013   */\n      pop\n      pop\n      jump\t// out\n        /* \"#utility.yul\":8071:8555   */\n    tag_112:\n        /* \"#utility.yul\":8200:8204   */\n      0x40\n        /* \"#utility.yul\":8195:8198   */\n      dup3\n        /* \"#utility.yul\":8191:8205   */\n      add\n        /* \"#utility.yul\":8287:8291   */\n      0x00\n        /* \"#utility.yul\":8280:8285   */\n      dup3\n        /* \"#utility.yul\":8276:8292   */\n      add\n        /* \"#utility.yul\":8270:8293   */\n      mload\n        /* \"#utility.yul\":8306:8369   */\n      tag_223\n        /* \"#utility.yul\":8363:8367   */\n      0x00\n        /* \"#utility.yul\":8358:8361   */\n      dup6\n        /* \"#utility.yul\":8354:8368   */\n      add\n        /* \"#utility.yul\":8340:8352   */\n      dup3\n        /* \"#utility.yul\":8306:8369   */\n      tag_109\n      jump\t// in\n    tag_223:\n        /* \"#utility.yul\":8215:8379   */\n      pop\n        /* \"#utility.yul\":8462:8466   */\n      0x20\n        /* \"#utility.yul\":8455:8460   */\n      dup3\n        /* \"#utility.yul\":8451:8467   */\n      add\n        /* \"#utility.yul\":8445:8468   */\n      mload\n        /* \"#utility.yul\":8481:8538   */\n      tag_224\n        /* \"#utility.yul\":8532:8536   */\n      0x20\n        /* \"#utility.yul\":8527:8530   */\n      dup6\n        /* \"#utility.yul\":8523:8537   */\n      add\n        /* \"#utility.yul\":8509:8521   */\n      dup3\n        /* \"#utility.yul\":8481:8538   */\n      tag_111\n      jump\t// in\n    tag_224:\n        /* \"#utility.yul\":8389:8548   */\n      pop\n        /* \"#utility.yul\":8169:8555   */\n      pop\n        /* \"#utility.yul\":8071:8555   */\n      pop\n      pop\n      jump\t// out\n        /* \"#utility.yul\":8561:8824   */\n    tag_113:\n        /* \"#utility.yul\":8672:8682   */\n      0x00\n        /* \"#utility.yul\":8693:8781   */\n      tag_226\n        /* \"#utility.yul\":8777:8780   */\n      dup4\n        /* \"#utility.yul\":8769:8775   */\n      dup4\n        /* \"#utility.yul\":8693:8781   */\n      tag_112\n      jump\t// in\n    tag_226:\n        /* \"#utility.yul\":8813:8817   */\n      0x40\n        /* \"#utility.yul\":8808:8811   */\n      dup4\n        /* \"#utility.yul\":8804:8818   */\n      add\n        /* \"#utility.yul\":8790:8818   */\n      swap1\n      pop\n        /* \"#utility.yul\":8561:8824   */\n      swap3\n      swap2\n      pop\n      pop\n      jump\t// out\n        /* \"#utility.yul\":8830:8964   */\n    tag_114:\n        /* \"#utility.yul\":8921:8925   */\n      0x00\n        /* \"#utility.yul\":8953:8957   */\n      0x20\n        /* \"#utility.yul\":8948:8951   */\n      dup3\n        /* \"#utility.yul\":8944:8958   */\n      add\n        /* \"#utility.yul\":8936:8958   */\n      swap1\n      pop\n        /* \"#utility.yul\":8830:8964   */\n      swap2\n      swap1\n      pop\n      jump\t// out\n        /* \"#utility.yul\":9026:9926   */\n    tag_115:\n        /* \"#utility.yul\":9187:9190   */\n      0x00\n        /* \"#utility.yul\":9216:9291   */\n      tag_229\n        /* \"#utility.yul\":9285:9290   */\n      dup3\n        /* \"#utility.yul\":9216:9291   */\n      tag_106\n      jump\t// in\n    tag_229:\n        /* \"#utility.yul\":9307:9414   */\n      tag_230\n        /* \"#utility.yul\":9407:9413   */\n      dup2\n        /* \"#utility.yul\":9402:9405   */\n      dup6\n        /* \"#utility.yul\":9307:9414   */\n      tag_107\n      jump\t// in\n    tag_230:\n        /* \"#utility.yul\":9300:9414   */\n      swap4\n      pop\n        /* \"#utility.yul\":9438:9515   */\n      tag_231\n        /* \"#utility.yul\":9509:9514   */\n      dup4\n        /* \"#utility.yul\":9438:9515   */\n      tag_108\n      jump\t// in\n    tag_231:\n        /* \"#utility.yul\":9538:9545   */\n      dup1\n        /* \"#utility.yul\":9569:9570   */\n      0x00\n        /* \"#utility.yul\":9554:9901   */\n    tag_232:\n        /* \"#utility.yul\":9579:9585   */\n      dup4\n        /* \"#utility.yul\":9576:9577   */\n      dup2\n        /* \"#utility.yul\":9573:9586   */\n      lt\n        /* \"#utility.yul\":9554:9901   */\n      iszero\n      tag_234\n      jumpi\n        /* \"#utility.yul\":9655:9661   */\n      dup2\n        /* \"#utility.yul\":9649:9662   */\n      mload\n        /* \"#utility.yul\":9682:9787   */\n      tag_235\n        /* \"#utility.yul\":9783:9786   */\n      dup9\n        /* \"#utility.yul\":9768:9781   */\n      dup3\n        /* \"#utility.yul\":9682:9787   */\n      tag_113\n      jump\t// in\n    tag_235:\n        /* \"#utility.yul\":9675:9787   */\n      swap8\n      pop\n        /* \"#utility.yul\":9810:9891   */\n      tag_236\n        /* \"#utility.yul\":9884:9890   */\n      dup4\n        /* \"#utility.yul\":9810:9891   */\n      tag_114\n      jump\t// in\n    tag_236:\n        /* \"#utility.yul\":9800:9891   */\n      swap3\n      pop\n        /* \"#utility.yul\":9614:9901   */\n      pop\n        /* \"#utility.yul\":9601:9602   */\n      0x01\n        /* \"#utility.yul\":9598:9599   */\n      dup2\n        /* \"#utility.yul\":9594:9603   */\n      add\n        /* \"#utility.yul\":9589:9603   */\n      swap1\n      pop\n        /* \"#utility.yul\":9554:9901   */\n      jump(tag_232)\n    tag_234:\n        /* \"#utility.yul\":9558:9572   */\n      pop\n        /* \"#utility.yul\":9917:9920   */\n      dup6\n        /* \"#utility.yul\":9910:9920   */\n      swap4\n      pop\n        /* \"#utility.yul\":9192:9926   */\n      pop\n      pop\n      pop\n        /* \"#utility.yul\":9026:9926   */\n      swap3\n      swap2\n      pop\n      pop\n      jump\t// out\n        /* \"#utility.yul\":9932:10389   */\n    tag_27:\n        /* \"#utility.yul\":10117:10121   */\n      0x00\n        /* \"#utility.yul\":10155:10157   */\n      0x20\n        /* \"#utility.yul\":10144:10153   */\n      dup3\n        /* \"#utility.yul\":10140:10158   */\n      add\n        /* \"#utility.yul\":10132:10158   */\n      swap1\n      pop\n        /* \"#utility.yul\":10204:10213   */\n      dup2\n        /* \"#utility.yul\":10198:10202   */\n      dup2\n        /* \"#utility.yul\":10194:10214   */\n      sub\n        /* \"#utility.yul\":10190:10191   */\n      0x00\n        /* \"#utility.yul\":10179:10188   */\n      dup4\n        /* \"#utility.yul\":10175:10192   */\n      add\n        /* \"#utility.yul\":10168:10215   */\n      mstore\n        /* \"#utility.yul\":10232:10382   */\n      tag_238\n        /* \"#utility.yul\":10377:10381   */\n      dup2\n        /* \"#utility.yul\":10368:10374   */\n      dup5\n        /* \"#utility.yul\":10232:10382   */\n      tag_115\n      jump\t// in\n    tag_238:\n        /* \"#utility.yul\":10224:10382   */\n      swap1\n      pop\n        /* \"#utility.yul\":9932:10389   */\n      swap3\n      swap2\n      pop\n      pop\n      jump\t// out\n        /* \"#utility.yul\":10395:10575   */\n    tag_35:\n        /* \"#utility.yul\":10443:10520   */\n      0x4e487b7100000000000000000000000000000000000000000000000000000000\n        /* \"#utility.yul\":10440:10441   */\n      0x00\n        /* \"#utility.yul\":10433:10521   */\n      mstore\n        /* \"#utility.yul\":10540:10544   */\n      0x32\n        /* \"#utility.yul\":10537:10538   */\n      0x04\n        /* \"#utility.yul\":10530:10545   */\n      mstore\n        /* \"#utility.yul\":10564:10568   */\n      0x24\n        /* \"#utility.yul\":10561:10562   */\n      0x00\n        /* \"#utility.yul\":10554:10569   */\n      revert\n        /* \"#utility.yul\":10581:10761   */\n    tag_116:\n        /* \"#utility.yul\":10629:10706   */\n      0x4e487b7100000000000000000000000000000000000000000000000000000000\n        /* \"#utility.yul\":10626:10627   */\n      0x00\n        /* \"#utility.yul\":10619:10707   */\n      mstore\n        /* \"#utility.yul\":10726:10730   */\n      0x11\n        /* \"#utility.yul\":10723:10724   */\n      0x04\n        /* \"#utility.yul\":10716:10731   */\n      mstore\n        /* \"#utility.yul\":10750:10754   */\n      0x24\n        /* \"#utility.yul\":10747:10748   */\n      0x00\n        /* \"#utility.yul\":10740:10755   */\n      revert\n        /* \"#utility.yul\":10767:10844   */\n    tag_117:\n        /* \"#utility.yul\":10804:10811   */\n      0x00\n        /* \"#utility.yul\":10833:10838   */\n      dup2\n        /* \"#utility.yul\":10822:10838   */\n      swap1\n      pop\n        /* \"#utility.yul\":10767:10844   */\n      swap2\n      swap1\n      pop\n      jump\t// out\n        /* \"#utility.yul\":10850:11083   */\n    tag_42:\n        /* \"#utility.yul\":10889:10892   */\n      0x00\n        /* \"#utility.yul\":10912:10936   */\n      tag_243\n        /* \"#utility.yul\":10930:10935   */\n      dup3\n        /* \"#utility.yul\":10912:10936   */\n      tag_117\n      jump\t// in\n    tag_243:\n        /* \"#utility.yul\":10903:10936   */\n      swap2\n      pop\n        /* \"#utility.yul\":10958:11024   */\n      0xffffffffffffffffffffffffffffffffffffffffffffffffffffffffffffffff\n        /* \"#utility.yul\":10951:10956   */\n      dup3\n        /* \"#utility.yul\":10948:11025   */\n      sub\n        /* \"#utility.yul\":10945:11048   */\n      tag_244\n      jumpi\n        /* \"#utility.yul\":11028:11046   */\n      tag_245\n      tag_116\n      jump\t// in\n    tag_245:\n        /* \"#utility.yul\":10945:11048   */\n    tag_244:\n        /* \"#utility.yul\":11075:11076   */\n      0x01\n        /* \"#utility.yul\":11068:11073   */\n      dup3\n        /* \"#utility.yul\":11064:11077   */\n      add\n        /* \"#utility.yul\":11057:11077   */\n      swap1\n      pop\n        /* \"#utility.yul\":10850:11083   */\n      swap2\n      swap1\n      pop\n      jump\t// out\n        /* \"#utility.yul\":11089:11258   */\n    tag_118:\n        /* \"#utility.yul\":11173:11184   */\n      0x00\n        /* \"#utility.yul\":11207:11213   */\n      dup3\n        /* \"#utility.yul\":11202:11205   */\n      dup3\n        /* \"#utility.yul\":11195:11214   */\n      mstore\n        /* \"#utility.yul\":11247:11251   */\n      0x20\n        /* \"#utility.yul\":11242:11245   */\n      dup3\n        /* \"#utility.yul\":11238:11252   */\n      add\n        /* \"#utility.yul\":11223:11252   */\n      swap1\n      pop\n        /* \"#utility.yul\":11089:11258   */\n      swap3\n      swap2\n      pop\n      pop\n      jump\t// out\n        /* \"#utility.yul\":11264:11435   */\n    tag_119:\n        /* \"#utility.yul\":11404:11427   */\n      0x596f7520446f6e27742048617665204163636573730000000000000000000000\n        /* \"#utility.yul\":11400:11401   */\n      0x00\n        /* \"#utility.yul\":11392:11398   */\n      dup3\n        /* \"#utility.yul\":11388:11402   */\n      add\n        /* \"#utility.yul\":11381:11428   */\n      mstore\n        /* \"#utility.yul\":11264:11435   */\n      pop\n      jump\t// out\n        /* \"#utility.yul\":11441:11807   */\n    tag_120:\n        /* \"#utility.yul\":11583:11586   */\n      0x00\n        /* \"#utility.yul\":11604:11671   */\n      tag_249\n        /* \"#utility.yul\":11668:11670   */\n      0x15\n        /* \"#utility.yul\":11663:11666   */\n      dup4\n        /* \"#utility.yul\":11604:11671   */\n      tag_118\n      jump\t// in\n    tag_249:\n        /* \"#utility.yul\":11597:11671   */\n      swap2\n      pop\n        /* \"#utility.yul\":11680:11773   */\n      tag_250\n        /* \"#utility.yul\":11769:11772   */\n      dup3\n        /* \"#utility.yul\":11680:11773   */\n      tag_119\n      jump\t// in\n    tag_250:\n        /* \"#utility.yul\":11798:11800   */\n      0x20\n        /* \"#utility.yul\":11793:11796   */\n      dup3\n        /* \"#utility.yul\":11789:11801   */\n      add\n        /* \"#utility.yul\":11782:11801   */\n      swap1\n      pop\n        /* \"#utility.yul\":11441:11807   */\n      swap2\n      swap1\n      pop\n      jump\t// out\n        /* \"#utility.yul\":11813:12232   */\n    tag_61:\n        /* \"#utility.yul\":11979:11983   */\n      0x00\n        /* \"#utility.yul\":12017:12019   */\n      0x20\n        /* \"#utility.yul\":12006:12015   */\n      dup3\n        /* \"#utility.yul\":12002:12020   */\n      add\n        /* \"#utility.yul\":11994:12020   */\n      swap1\n      pop\n        /* \"#utility.yul\":12066:12075   */\n      dup2\n        /* \"#utility.yul\":12060:12064   */\n      dup2\n        /* \"#utility.yul\":12056:12076   */\n      sub\n        /* \"#utility.yul\":12052:12053   */\n      0x00\n        /* \"#utility.yul\":12041:12050   */\n      dup4\n        /* \"#utility.yul\":12037:12054   */\n      add\n        /* \"#utility.yul\":12030:12077   */\n      mstore\n        /* \"#utility.yul\":12094:12225   */\n      tag_252\n        /* \"#utility.yul\":12220:12224   */\n      dup2\n        /* \"#utility.yul\":12094:12225   */\n      tag_120\n      jump\t// in\n    tag_252:\n        /* \"#utility.yul\":12086:12225   */\n      swap1\n      pop\n        /* \"#utility.yul\":11813:12232   */\n      swap2\n      swap1\n      pop\n      jump\t// out\n        /* \"#utility.yul\":12238:12418   */\n    tag_121:\n        /* \"#utility.yul\":12286:12363   */\n      0x4e487b7100000000000000000000000000000000000000000000000000000000\n        /* \"#utility.yul\":12283:12284   */\n      0x00\n        /* \"#utility.yul\":12276:12364   */\n      mstore\n        /* \"#utility.yul\":12383:12387   */\n      0x22\n        /* \"#utility.yul\":12380:12381   */\n      0x04\n        /* \"#utility.yul\":12373:12388   */\n      mstore\n        /* \"#utility.yul\":12407:12411   */\n      0x24\n        /* \"#utility.yul\":12404:12405   */\n      0x00\n        /* \"#utility.yul\":12397:12412   */\n      revert\n        /* \"#utility.yul\":12424:12744   */\n    tag_66:\n        /* \"#utility.yul\":12468:12474   */\n      0x00\n        /* \"#utility.yul\":12505:12506   */\n      0x02\n        /* \"#utility.yul\":12499:12503   */\n      dup3\n        /* \"#utility.yul\":12495:12507   */\n      div\n        /* \"#utility.yul\":12485:12507   */\n      swap1\n      pop\n        /* \"#utility.yul\":12552:12553   */\n      0x01\n        /* \"#utility.yul\":12546:12550   */\n      dup3\n        /* \"#utility.yul\":12542:12554   */\n      and\n        /* \"#utility.yul\":12573:12591   */\n      dup1\n        /* \"#utility.yul\":12563:12644   */\n      tag_255\n      jumpi\n        /* \"#utility.yul\":12629:12633   */\n      0x7f\n        /* \"#utility.yul\":12621:12627   */\n      dup3\n        /* \"#utility.yul\":12617:12634   */\n      and\n        /* \"#utility.yul\":12607:12634   */\n      swap2\n      pop\n        /* \"#utility.yul\":12563:12644   */\n    tag_255:\n        /* \"#utility.yul\":12691:12693   */\n      0x20\n        /* \"#utility.yul\":12683:12689   */\n      dup3\n        /* \"#utility.yul\":12680:12694   */\n      lt\n        /* \"#utility.yul\":12660:12678   */\n      dup2\n        /* \"#utility.yul\":12657:12695   */\n      sub\n        /* \"#utility.yul\":12654:12738   */\n      tag_256\n      jumpi\n        /* \"#utility.yul\":12710:12728   */\n      tag_257\n      tag_121\n      jump\t// in\n    tag_257:\n        /* \"#utility.yul\":12654:12738   */\n    tag_256:\n        /* \"#utility.yul\":12475:12744   */\n      pop\n        /* \"#utility.yul\":12424:12744   */\n      swap2\n      swap1\n      pop\n      jump\t// out\n        /* \"#utility.yul\":12750:12891   */\n    tag_122:\n        /* \"#utility.yul\":12799:12803   */\n      0x00\n        /* \"#utility.yul\":12822:12825   */\n      dup2\n        /* \"#utility.yul\":12814:12825   */\n      swap1\n      pop\n        /* \"#utility.yul\":12845:12848   */\n      dup2\n        /* \"#utility.yul\":12842:12843   */\n      0x00\n        /* \"#utility.yul\":12835:12849   */\n      mstore\n        /* \"#utility.yul\":12879:12883   */\n      0x20\n        /* \"#utility.yul\":12876:12877   */\n      0x00\n        /* \"#utility.yul\":12866:12884   */\n      keccak256\n        /* \"#utility.yul\":12858:12884   */\n      swap1\n      pop\n        /* \"#utility.yul\":12750:12891   */\n      swap2\n      swap1\n      pop\n      jump\t// out\n        /* \"#utility.yul\":12897:12990   */\n    tag_123:\n        /* \"#utility.yul\":12934:12940   */\n      0x00\n        /* \"#utility.yul\":12981:12983   */\n      0x20\n        /* \"#utility.yul\":12976:12978   */\n      0x1f\n        /* \"#utility.yul\":12969:12974   */\n      dup4\n        /* \"#utility.yul\":12965:12979   */\n      add\n        /* \"#utility.yul\":12961:12984   */\n      div\n        /* \"#utility.yul\":12951:12984   */\n      swap1\n      pop\n        /* \"#utility.yul\":12897:12990   */\n      swap2\n      swap1\n      pop\n      jump\t// out\n        /* \"#utility.yul\":12996:13103   */\n    tag_124:\n        /* \"#utility.yul\":13040:13048   */\n      0x00\n        /* \"#utility.yul\":13090:13095   */\n      dup3\n        /* \"#utility.yul\":13084:13088   */\n      dup3\n        /* \"#utility.yul\":13080:13096   */\n      shl\n        /* \"#utility.yul\":13059:13096   */\n      swap1\n      pop\n        /* \"#utility.yul\":12996:13103   */\n      swap3\n      swap2\n      pop\n      pop\n      jump\t// out\n        /* \"#utility.yul\":13109:13502   */\n    tag_125:\n        /* \"#utility.yul\":13178:13184   */\n      0x00\n        /* \"#utility.yul\":13228:13229   */\n      0x08\n        /* \"#utility.yul\":13216:13226   */\n      dup4\n        /* \"#utility.yul\":13212:13230   */\n      mul\n        /* \"#utility.yul\":13251:13348   */\n      tag_262\n        /* \"#utility.yul\":13281:13347   */\n      0xffffffffffffffffffffffffffffffffffffffffffffffffffffffffffffffff\n        /* \"#utility.yul\":13270:13279   */\n      dup3\n        /* \"#utility.yul\":13251:13348   */\n      tag_124\n      jump\t// in\n    tag_262:\n        /* \"#utility.yul\":13369:13408   */\n      tag_263\n        /* \"#utility.yul\":13399:13407   */\n      dup7\n        /* \"#utility.yul\":13388:13397   */\n      dup4\n        /* \"#utility.yul\":13369:13408   */\n      tag_124\n      jump\t// in\n    tag_263:\n        /* \"#utility.yul\":13357:13408   */\n      swap6\n      pop\n        /* \"#utility.yul\":13441:13445   */\n      dup1\n        /* \"#utility.yul\":13437:13446   */\n      not\n        /* \"#utility.yul\":13430:13435   */\n      dup5\n        /* \"#utility.yul\":13426:13447   */\n      and\n        /* \"#utility.yul\":13417:13447   */\n      swap4\n      pop\n        /* \"#utility.yul\":13490:13494   */\n      dup1\n        /* \"#utility.yul\":13480:13488   */\n      dup7\n        /* \"#utility.yul\":13476:13495   */\n      and\n        /* \"#utility.yul\":13469:13474   */\n      dup5\n        /* \"#utility.yul\":13466:13496   */\n      or\n        /* \"#utility.yul\":13456:13496   */\n      swap3\n      pop\n        /* \"#utility.yul\":13185:13502   */\n      pop\n      pop\n        /* \"#utility.yul\":13109:13502   */\n      swap4\n      swap3\n      pop\n      pop\n      pop\n      jump\t// out\n        /* \"#utility.yul\":13508:13568   */\n    tag_126:\n        /* \"#utility.yul\":13536:13539   */\n      0x00\n        /* \"#utility.yul\":13557:13562   */\n      dup2\n        /* \"#utility.yul\":13550:13562   */\n      swap1\n      pop\n        /* \"#utility.yul\":13508:13568   */\n      swap2\n      swap1\n      pop\n      jump\t// out\n        /* \"#utility.yul\":13574:13716   */\n    tag_127:\n        /* \"#utility.yul\":13624:13633   */\n      0x00\n        /* \"#utility.yul\":13657:13710   */\n      tag_266\n        /* \"#utility.yul\":13675:13709   */\n      tag_267\n        /* \"#utility.yul\":13684:13708   */\n      tag_268\n        /* \"#utility.yul\":13702:13707   */\n      dup5\n        /* \"#utility.yul\":13684:13708   */\n      tag_117\n      jump\t// in\n    tag_268:\n        /* \"#utility.yul\":13675:13709   */\n      tag_126\n      jump\t// in\n    tag_267:\n        /* \"#utility.yul\":13657:13710   */\n      tag_117\n      jump\t// in\n    tag_266:\n        /* \"#utility.yul\":13644:13710   */\n      swap1\n      pop\n        /* \"#utility.yul\":13574:13716   */\n      swap2\n      swap1\n      pop\n      jump\t// out\n        /* \"#utility.yul\":13722:13797   */\n    tag_128:\n        /* \"#utility.yul\":13765:13768   */\n      0x00\n        /* \"#utility.yul\":13786:13791   */\n      dup2\n        /* \"#utility.yul\":13779:13791   */\n      swap1\n      pop\n        /* \"#utility.yul\":13722:13797   */\n      swap2\n      swap1\n      pop\n      jump\t// out\n        /* \"#utility.yul\":13803:14072   */\n    tag_129:\n        /* \"#utility.yul\":13913:13952   */\n      tag_271\n        /* \"#utility.yul\":13944:13951   */\n      dup4\n        /* \"#utility.yul\":13913:13952   */\n      tag_127\n      jump\t// in\n    tag_271:\n        /* \"#utility.yul\":13974:14065   */\n      tag_272\n        /* \"#utility.yul\":14023:14064   */\n      tag_273\n        /* \"#utility.yul\":14047:14063   */\n      dup3\n        /* \"#utility.yul\":14023:14064   */\n      tag_128\n      jump\t// in\n    tag_273:\n        /* \"#utility.yul\":14015:14021   */\n      dup5\n        /* \"#utility.yul\":14008:14012   */\n      dup5\n        /* \"#utility.yul\":14002:14013   */\n      sload\n        /* \"#utility.yul\":13974:14065   */\n      tag_125\n      jump\t// in\n    tag_272:\n        /* \"#utility.yul\":13968:13972   */\n      dup3\n        /* \"#utility.yul\":13961:14066   */\n      sstore\n        /* \"#utility.yul\":13879:14072   */\n      pop\n        /* \"#utility.yul\":13803:14072   */\n      pop\n      pop\n      pop\n      jump\t// out\n        /* \"#utility.yul\":14078:14151   */\n    tag_130:\n        /* \"#utility.yul\":14123:14126   */\n      0x00\n        /* \"#utility.yul\":14078:14151   */\n      swap1\n      jump\t// out\n        /* \"#utility.yul\":14157:14346   */\n    tag_131:\n        /* \"#utility.yul\":14234:14266   */\n      tag_276\n      tag_130\n      jump\t// in\n    tag_276:\n        /* \"#utility.yul\":14275:14340   */\n      tag_277\n        /* \"#utility.yul\":14333:14339   */\n      dup2\n        /* \"#utility.yul\":14325:14331   */\n      dup5\n        /* \"#utility.yul\":14319:14323   */\n      dup5\n        /* \"#utility.yul\":14275:14340   */\n      tag_129\n      jump\t// in\n    tag_277:\n        /* \"#utility.yul\":14210:14346   */\n      pop\n        /* \"#utility.yul\":14157:14346   */\n      pop\n      pop\n      jump\t// out\n        /* \"#utility.yul\":14352:14538   */\n    tag_132:\n        /* \"#utility.yul\":14412:14532   */\n    tag_279:\n        /* \"#utility.yul\":14429:14432   */\n      dup2\n        /* \"#utility.yul\":14422:14427   */\n      dup2\n        /* \"#utility.yul\":14419:14433   */\n      lt\n        /* \"#utility.yul\":14412:14532   */\n      iszero\n      tag_281\n      jumpi\n        /* \"#utility.yul\":14483:14522   */\n      tag_282\n        /* \"#utility.yul\":14520:14521   */\n      0x00\n        /* \"#utility.yul\":14513:14518   */\n      dup3\n        /* \"#utility.yul\":14483:14522   */\n      tag_131\n      jump\t// in\n    tag_282:\n        /* \"#utility.yul\":14456:14457   */\n      0x01\n        /* \"#utility.yul\":14449:14454   */\n      dup2\n        /* \"#utility.yul\":14445:14458   */\n      add\n        /* \"#utility.yul\":14436:14458   */\n      swap1\n      pop\n        /* \"#utility.yul\":14412:14532   */\n      jump(tag_279)\n    tag_281:\n        /* \"#utility.yul\":14352:14538   */\n      pop\n      pop\n      jump\t// out\n        /* \"#utility.yul\":14544:15087   */\n    tag_133:\n        /* \"#utility.yul\":14645:14647   */\n      0x1f\n        /* \"#utility.yul\":14640:14643   */\n      dup3\n        /* \"#utility.yul\":14637:14648   */\n      gt\n        /* \"#utility.yul\":14634:15080   */\n      iszero\n      tag_284\n      jumpi\n        /* \"#utility.yul\":14679:14717   */\n      tag_285\n        /* \"#utility.yul\":14711:14716   */\n      dup2\n        /* \"#utility.yul\":14679:14717   */\n      tag_122\n      jump\t// in\n    tag_285:\n        /* \"#utility.yul\":14763:14792   */\n      tag_286\n        /* \"#utility.yul\":14781:14791   */\n      dup5\n        /* \"#utility.yul\":14763:14792   */\n      tag_123\n      jump\t// in\n    tag_286:\n        /* \"#utility.yul\":14753:14761   */\n      dup2\n        /* \"#utility.yul\":14749:14793   */\n      add\n        /* \"#utility.yul\":14946:14948   */\n      0x20\n        /* \"#utility.yul\":14934:14944   */\n      dup6\n        /* \"#utility.yul\":14931:14949   */\n      lt\n        /* \"#utility.yul\":14928:14977   */\n      iszero\n      tag_287\n      jumpi\n        /* \"#utility.yul\":14967:14975   */\n      dup2\n        /* \"#utility.yul\":14952:14975   */\n      swap1\n      pop\n        /* \"#utility.yul\":14928:14977   */\n    tag_287:\n        /* \"#utility.yul\":14990:15070   */\n      tag_288\n        /* \"#utility.yul\":15046:15068   */\n      tag_289\n        /* \"#utility.yul\":15064:15067   */\n      dup6\n        /* \"#utility.yul\":15046:15068   */\n      tag_123\n      jump\t// in\n    tag_289:\n        /* \"#utility.yul\":15036:15044   */\n      dup4\n        /* \"#utility.yul\":15032:15069   */\n      add\n        /* \"#utility.yul\":15019:15030   */\n      dup3\n        /* \"#utility.yul\":14990:15070   */\n      tag_132\n      jump\t// in\n    tag_288:\n        /* \"#utility.yul\":14649:15080   */\n      pop\n      pop\n        /* \"#utility.yul\":14634:15080   */\n    tag_284:\n        /* \"#utility.yul\":14544:15087   */\n      pop\n      pop\n      pop\n      jump\t// out\n        /* \"#utility.yul\":15093:15210   */\n    tag_134:\n        /* \"#utility.yul\":15147:15155   */\n      0x00\n        /* \"#utility.yul\":15197:15202   */\n      dup3\n        /* \"#utility.yul\":15191:15195   */\n      dup3\n        /* \"#utility.yul\":15187:15203   */\n      shr\n        /* \"#utility.yul\":15166:15203   */\n      swap1\n      pop\n        /* \"#utility.yul\":15093:15210   */\n      swap3\n      swap2\n      pop\n      pop\n      jump\t// out\n        /* \"#utility.yul\":15216:15385   */\n    tag_135:\n        /* \"#utility.yul\":15260:15266   */\n      0x00\n        /* \"#utility.yul\":15293:15344   */\n      tag_292\n        /* \"#utility.yul\":15341:15342   */\n      0x00\n        /* \"#utility.yul\":15337:15343   */\n      not\n        /* \"#utility.yul\":15329:15334   */\n      dup5\n        /* \"#utility.yul\":15326:15327   */\n      0x08\n        /* \"#utility.yul\":15322:15335   */\n      mul\n        /* \"#utility.yul\":15293:15344   */\n      tag_134\n      jump\t// in\n    tag_292:\n        /* \"#utility.yul\":15289:15345   */\n      not\n        /* \"#utility.yul\":15374:15378   */\n      dup1\n        /* \"#utility.yul\":15368:15372   */\n      dup4\n        /* \"#utility.yul\":15364:15379   */\n      and\n        /* \"#utility.yul\":15354:15379   */\n      swap2\n      pop\n        /* \"#utility.yul\":15267:15385   */\n      pop\n        /* \"#utility.yul\":15216:15385   */\n      swap3\n      swap2\n      pop\n      pop\n      jump\t// out\n        /* \"#utility.yul\":15390:15685   */\n    tag_136:\n        /* \"#utility.yul\":15466:15470   */\n      0x00\n        /* \"#utility.yul\":15612:15641   */\n      tag_294\n        /* \"#utility.yul\":15637:15640   */\n      dup4\n        /* \"#utility.yul\":15631:15635   */\n      dup4\n        /* \"#utility.yul\":15612:15641   */\n      tag_135\n      jump\t// in\n    tag_294:\n        /* \"#utility.yul\":15604:15641   */\n      swap2\n      pop\n        /* \"#utility.yul\":15674:15677   */\n      dup3\n        /* \"#utility.yul\":15671:15672   */\n      0x02\n        /* \"#utility.yul\":15667:15678   */\n      mul\n        /* \"#utility.yul\":15661:15665   */\n      dup3\n        /* \"#utility.yul\":15658:15679   */\n      or\n        /* \"#utility.yul\":15650:15679   */\n      swap1\n      pop\n        /* \"#utility.yul\":15390:15685   */\n      swap3\n      swap2\n      pop\n      pop\n      jump\t// out\n        /* \"#utility.yul\":15690:17085   */\n    tag_74:\n        /* \"#utility.yul\":15807:15844   */\n      tag_296\n        /* \"#utility.yul\":15840:15843   */\n      dup3\n        /* \"#utility.yul\":15807:15844   */\n      tag_89\n      jump\t// in\n    tag_296:\n        /* \"#utility.yul\":15909:15927   */\n      0xffffffffffffffff\n        /* \"#utility.yul\":15901:15907   */\n      dup2\n        /* \"#utility.yul\":15898:15928   */\n      gt\n        /* \"#utility.yul\":15895:15951   */\n      iszero\n      tag_297\n      jumpi\n        /* \"#utility.yul\":15931:15949   */\n      tag_298\n      tag_99\n      jump\t// in\n    tag_298:\n        /* \"#utility.yul\":15895:15951   */\n    tag_297:\n        /* \"#utility.yul\":15975:16013   */\n      tag_299\n        /* \"#utility.yul\":16007:16011   */\n      dup3\n        /* \"#utility.yul\":16001:16012   */\n      sload\n        /* \"#utility.yul\":15975:16013   */\n      tag_66\n      jump\t// in\n    tag_299:\n        /* \"#utility.yul\":16060:16127   */\n      tag_300\n        /* \"#utility.yul\":16120:16126   */\n      dup3\n        /* \"#utility.yul\":16112:16118   */\n      dup3\n        /* \"#utility.yul\":16106:16110   */\n      dup6\n        /* \"#utility.yul\":16060:16127   */\n      tag_133\n      jump\t// in\n    tag_300:\n        /* \"#utility.yul\":16154:16155   */\n      0x00\n        /* \"#utility.yul\":16178:16182   */\n      0x20\n        /* \"#utility.yul\":16165:16182   */\n      swap1\n      pop\n        /* \"#utility.yul\":16210:16212   */\n      0x1f\n        /* \"#utility.yul\":16202:16208   */\n      dup4\n        /* \"#utility.yul\":16199:16213   */\n      gt\n        /* \"#utility.yul\":16227:16228   */\n      0x01\n        /* \"#utility.yul\":16222:16840   */\n      dup2\n      eq\n      tag_302\n      jumpi\n        /* \"#utility.yul\":16884:16885   */\n      0x00\n        /* \"#utility.yul\":16901:16907   */\n      dup5\n        /* \"#utility.yul\":16898:16975   */\n      iszero\n      tag_303\n      jumpi\n        /* \"#utility.yul\":16950:16959   */\n      dup3\n        /* \"#utility.yul\":16945:16948   */\n      dup8\n        /* \"#utility.yul\":16941:16960   */\n      add\n        /* \"#utility.yul\":16935:16961   */\n      mload\n        /* \"#utility.yul\":16926:16961   */\n      swap1\n      pop\n        /* \"#utility.yul\":16898:16975   */\n    tag_303:\n        /* \"#utility.yul\":17001:17068   */\n      tag_304\n        /* \"#utility.yul\":17061:17067   */\n      dup6\n        /* \"#utility.yul\":17054:17059   */\n      dup3\n        /* \"#utility.yul\":17001:17068   */\n      tag_136\n      jump\t// in\n    tag_304:\n        /* \"#utility.yul\":16995:16999   */\n      dup7\n        /* \"#utility.yul\":16988:17069   */\n      sstore\n        /* \"#utility.yul\":16857:17079   */\n      pop\n        /* \"#utility.yul\":16192:17079   */\n      jump(tag_301)\n        /* \"#utility.yul\":16222:16840   */\n    tag_302:\n        /* \"#utility.yul\":16274:16278   */\n      0x1f\n        /* \"#utility.yul\":16270:16279   */\n      not\n        /* \"#utility.yul\":16262:16268   */\n      dup5\n        /* \"#utility.yul\":16258:16280   */\n      and\n        /* \"#utility.yul\":16308:16345   */\n      tag_305\n        /* \"#utility.yul\":16340:16344   */\n      dup7\n        /* \"#utility.yul\":16308:16345   */\n      tag_122\n      jump\t// in\n    tag_305:\n        /* \"#utility.yul\":16367:16368   */\n      0x00\n        /* \"#utility.yul\":16381:16589   */\n    tag_306:\n        /* \"#utility.yul\":16395:16402   */\n      dup3\n        /* \"#utility.yul\":16392:16393   */\n      dup2\n        /* \"#utility.yul\":16389:16403   */\n      lt\n        /* \"#utility.yul\":16381:16589   */\n      iszero\n      tag_308\n      jumpi\n        /* \"#utility.yul\":16474:16483   */\n      dup5\n        /* \"#utility.yul\":16469:16472   */\n      dup10\n        /* \"#utility.yul\":16465:16484   */\n      add\n        /* \"#utility.yul\":16459:16485   */\n      mload\n        /* \"#utility.yul\":16451:16457   */\n      dup3\n        /* \"#utility.yul\":16444:16486   */\n      sstore\n        /* \"#utility.yul\":16525:16526   */\n      0x01\n        /* \"#utility.yul\":16517:16523   */\n      dup3\n        /* \"#utility.yul\":16513:16527   */\n      add\n        /* \"#utility.yul\":16503:16527   */\n      swap2\n      pop\n        /* \"#utility.yul\":16572:16574   */\n      0x20\n        /* \"#utility.yul\":16561:16570   */\n      dup6\n        /* \"#utility.yul\":16557:16575   */\n      add\n        /* \"#utility.yul\":16544:16575   */\n      swap5\n      pop\n        /* \"#utility.yul\":16418:16422   */\n      0x20\n        /* \"#utility.yul\":16415:16416   */\n      dup2\n        /* \"#utility.yul\":16411:16423   */\n      add\n        /* \"#utility.yul\":16406:16423   */\n      swap1\n      pop\n        /* \"#utility.yul\":16381:16589   */\n      jump(tag_306)\n    tag_308:\n        /* \"#utility.yul\":16617:16623   */\n      dup7\n        /* \"#utility.yul\":16608:16615   */\n      dup4\n        /* \"#utility.yul\":16605:16624   */\n      lt\n        /* \"#utility.yul\":16602:16781   */\n      iszero\n      tag_309\n      jumpi\n        /* \"#utility.yul\":16675:16684   */\n      dup5\n        /* \"#utility.yul\":16670:16673   */\n      dup10\n        /* \"#utility.yul\":16666:16685   */\n      add\n        /* \"#utility.yul\":16660:16686   */\n      mload\n        /* \"#utility.yul\":16718:16766   */\n      tag_310\n        /* \"#utility.yul\":16760:16764   */\n      0x1f\n        /* \"#utility.yul\":16752:16758   */\n      dup10\n        /* \"#utility.yul\":16748:16765   */\n      and\n        /* \"#utility.yul\":16737:16746   */\n      dup3\n        /* \"#utility.yul\":16718:16766   */\n      tag_135\n      jump\t// in\n    tag_310:\n        /* \"#utility.yul\":16710:16716   */\n      dup4\n        /* \"#utility.yul\":16703:16767   */\n      sstore\n        /* \"#utility.yul\":16625:16781   */\n      pop\n        /* \"#utility.yul\":16602:16781   */\n    tag_309:\n        /* \"#utility.yul\":16827:16828   */\n      0x01\n        /* \"#utility.yul\":16823:16824   */\n      0x02\n        /* \"#utility.yul\":16815:16821   */\n      dup9\n        /* \"#utility.yul\":16811:16825   */\n      mul\n        /* \"#utility.yul\":16807:16829   */\n      add\n        /* \"#utility.yul\":16801:16805   */\n      dup9\n        /* \"#utility.yul\":16794:16830   */\n      sstore\n        /* \"#utility.yul\":16229:16840   */\n      pop\n      pop\n      pop\n        /* \"#utility.yul\":16192:17079   */\n    tag_301:\n      pop\n        /* \"#utility.yul\":15782:17085   */\n      pop\n      pop\n      pop\n        /* \"#utility.yul\":15690:17085   */\n      pop\n      pop\n      jump\t// out\n\n    auxdata: 0xa2646970667358221220394f5796a988b421354c0bb3820ca6a6427527901e53f443eee78e28df30e04764736f6c63430008150033\n}\n",
				"bytecode": {
					"linkReferences": {},
					"object": "608060405234801561000f575f80fd5b506113638061001d5f395ff3fe608060405234801561000f575f80fd5b5060043610610055575f3560e01c806316c61d72146100595780632270a498146100755780634ab1fb4e146100915780635b24559e146100c157806362d61095146100dd575b5f80fd5b610073600480360381019061006e9190610b0e565b6100fb565b005b61008f600480360381019061008a9190610b0e565b61051b565b005b6100ab60048036038101906100a69190610b0e565b610728565b6040516100b89190610c7e565b60405180910390f35b6100db60048036038101906100d69190610dca565b610932565b005b6100e56109a2565b6040516100f29190610f22565b60405180910390f35b6001805f3373ffffffffffffffffffffffffffffffffffffffff1673ffffffffffffffffffffffffffffffffffffffff1681526020019081526020015f205f8373ffffffffffffffffffffffffffffffffffffffff1673ffffffffffffffffffffffffffffffffffffffff1681526020019081526020015f205f6101000a81548160ff02191690831515021790555060025f3373ffffffffffffffffffffffffffffffffffffffff1673ffffffffffffffffffffffffffffffffffffffff1681526020019081526020015f205f8273ffffffffffffffffffffffffffffffffffffffff1673ffffffffffffffffffffffffffffffffffffffff1681526020019081526020015f205f9054906101000a900460ff1615610395575f5b60035f3373ffffffffffffffffffffffffffffffffffffffff1673ffffffffffffffffffffffffffffffffffffffff1681526020019081526020015f208054905081101561038f578173ffffffffffffffffffffffffffffffffffffffff1660035f3373ffffffffffffffffffffffffffffffffffffffff1673ffffffffffffffffffffffffffffffffffffffff1681526020019081526020015f2082815481106102c4576102c3610f42565b5b905f5260205f20015f015f9054906101000a900473ffffffffffffffffffffffffffffffffffffffff1673ffffffffffffffffffffffffffffffffffffffff160361037c57600160035f3373ffffffffffffffffffffffffffffffffffffffff1673ffffffffffffffffffffffffffffffffffffffff1681526020019081526020015f20828154811061035a57610359610f42565b5b905f5260205f20015f0160146101000a81548160ff0219169083151502179055505b808061038790610fa5565b915050610216565b50610518565b60035f3373ffffffffffffffffffffffffffffffffffffffff1673ffffffffffffffffffffffffffffffffffffffff1681526020019081526020015f2060405180604001604052808373ffffffffffffffffffffffffffffffffffffffff16815260200160011515815250908060018154018082558091505060019003905f5260205f20015f909190919091505f820151815f015f6101000a81548173ffffffffffffffffffffffffffffffffffffffff021916908373ffffffffffffffffffffffffffffffffffffffff1602179055506020820151815f0160146101000a81548160ff0219169083151502179055505050600160025f3373ffffffffffffffffffffffffffffffffffffffff1673ffffffffffffffffffffffffffffffffffffffff1681526020019081526020015f205f8373ffffffffffffffffffffffffffffffffffffffff1673ffffffffffffffffffffffffffffffffffffffff1681526020019081526020015f205f6101000a81548160ff0219169083151502179055505b50565b5f60015f3373ffffffffffffffffffffffffffffffffffffffff1673ffffffffffffffffffffffffffffffffffffffff1681526020019081526020015f205f8373ffffffffffffffffffffffffffffffffffffffff1673ffffffffffffffffffffffffffffffffffffffff1681526020019081526020015f205f6101000a81548160ff0219169083151502179055505f5b60035f3373ffffffffffffffffffffffffffffffffffffffff1673ffffffffffffffffffffffffffffffffffffffff1681526020019081526020015f2080549050811015610724578173ffffffffffffffffffffffffffffffffffffffff1660035f3373ffffffffffffffffffffffffffffffffffffffff1673ffffffffffffffffffffffffffffffffffffffff1681526020019081526020015f20828154811061065a57610659610f42565b5b905f5260205f20015f015f9054906101000a900473ffffffffffffffffffffffffffffffffffffffff1673ffffffffffffffffffffffffffffffffffffffff1603610711575f60035f3373ffffffffffffffffffffffffffffffffffffffff1673ffffffffffffffffffffffffffffffffffffffff1681526020019081526020015f2082815481106106ef576106ee610f42565b5b905f5260205f20015f0160146101000a81548160ff0219169083151502179055505b808061071c90610fa5565b9150506105ac565b5050565b60603373ffffffffffffffffffffffffffffffffffffffff168273ffffffffffffffffffffffffffffffffffffffff1614806107e5575060015f8373ffffffffffffffffffffffffffffffffffffffff1673ffffffffffffffffffffffffffffffffffffffff1681526020019081526020015f205f3373ffffffffffffffffffffffffffffffffffffffff1673ffffffffffffffffffffffffffffffffffffffff1681526020019081526020015f205f9054906101000a900460ff165b610824576040517f08c379a000000000000000000000000000000000000000000000000000000000815260040161081b90611046565b60405180910390fd5b5f808373ffffffffffffffffffffffffffffffffffffffff1673ffffffffffffffffffffffffffffffffffffffff1681526020019081526020015f20805480602002602001604051908101604052809291908181526020015f905b82821015610927578382905f5260205f2001805461089c90611091565b80601f01602080910402602001604051908101604052809291908181526020018280546108c890611091565b80156109135780601f106108ea57610100808354040283529160200191610913565b820191905f5260205f20905b8154815290600101906020018083116108f657829003601f168201915b50505050508152602001906001019061087f565b505050509050919050565b5f808373ffffffffffffffffffffffffffffffffffffffff1673ffffffffffffffffffffffffffffffffffffffff1681526020019081526020015f2081908060018154018082558091505060019003905f5260205f20015f90919091909150908161099d919061125e565b505050565b606060035f3373ffffffffffffffffffffffffffffffffffffffff1673ffffffffffffffffffffffffffffffffffffffff1681526020019081526020015f20805480602002602001604051908101604052809291908181526020015f905b82821015610a9a578382905f5260205f20016040518060400160405290815f82015f9054906101000a900473ffffffffffffffffffffffffffffffffffffffff1673ffffffffffffffffffffffffffffffffffffffff1673ffffffffffffffffffffffffffffffffffffffff1681526020015f820160149054906101000a900460ff16151515158152505081526020019060010190610a00565b50505050905090565b5f604051905090565b5f80fd5b5f80fd5b5f73ffffffffffffffffffffffffffffffffffffffff82169050919050565b5f610add82610ab4565b9050919050565b610aed81610ad3565b8114610af7575f80fd5b50565b5f81359050610b0881610ae4565b92915050565b5f60208284031215610b2357610b22610aac565b5b5f610b3084828501610afa565b91505092915050565b5f81519050919050565b5f82825260208201905092915050565b5f819050602082019050919050565b5f81519050919050565b5f82825260208201905092915050565b5f5b83811015610b99578082015181840152602081019050610b7e565b5f8484015250505050565b5f601f19601f8301169050919050565b5f610bbe82610b62565b610bc88185610b6c565b9350610bd8818560208601610b7c565b610be181610ba4565b840191505092915050565b5f610bf78383610bb4565b905092915050565b5f602082019050919050565b5f610c1582610b39565b610c1f8185610b43565b935083602082028501610c3185610b53565b805f5b85811015610c6c5784840389528151610c4d8582610bec565b9450610c5883610bff565b925060208a01995050600181019050610c34565b50829750879550505050505092915050565b5f6020820190508181035f830152610c968184610c0b565b905092915050565b5f80fd5b5f80fd5b7f4e487b71000000000000000000000000000000000000000000000000000000005f52604160045260245ffd5b610cdc82610ba4565b810181811067ffffffffffffffff82111715610cfb57610cfa610ca6565b5b80604052505050565b5f610d0d610aa3565b9050610d198282610cd3565b919050565b5f67ffffffffffffffff821115610d3857610d37610ca6565b5b610d4182610ba4565b9050602081019050919050565b828183375f83830152505050565b5f610d6e610d6984610d1e565b610d04565b905082815260208101848484011115610d8a57610d89610ca2565b5b610d95848285610d4e565b509392505050565b5f82601f830112610db157610db0610c9e565b5b8135610dc1848260208601610d5c565b91505092915050565b5f8060408385031215610de057610ddf610aac565b5b5f610ded85828601610afa565b925050602083013567ffffffffffffffff811115610e0e57610e0d610ab0565b5b610e1a85828601610d9d565b9150509250929050565b5f81519050919050565b5f82825260208201905092915050565b5f819050602082019050919050565b610e5681610ad3565b82525050565b5f8115159050919050565b610e7081610e5c565b82525050565b604082015f820151610e8a5f850182610e4d565b506020820151610e9d6020850182610e67565b50505050565b5f610eae8383610e76565b60408301905092915050565b5f602082019050919050565b5f610ed082610e24565b610eda8185610e2e565b9350610ee583610e3e565b805f5b83811015610f15578151610efc8882610ea3565b9750610f0783610eba565b925050600181019050610ee8565b5085935050505092915050565b5f6020820190508181035f830152610f3a8184610ec6565b905092915050565b7f4e487b71000000000000000000000000000000000000000000000000000000005f52603260045260245ffd5b7f4e487b71000000000000000000000000000000000000000000000000000000005f52601160045260245ffd5b5f819050919050565b5f610faf82610f9c565b91507fffffffffffffffffffffffffffffffffffffffffffffffffffffffffffffffff8203610fe157610fe0610f6f565b5b600182019050919050565b5f82825260208201905092915050565b7f596f7520446f6e277420486176652041636365737300000000000000000000005f82015250565b5f611030601583610fec565b915061103b82610ffc565b602082019050919050565b5f6020820190508181035f83015261105d81611024565b9050919050565b7f4e487b71000000000000000000000000000000000000000000000000000000005f52602260045260245ffd5b5f60028204905060018216806110a857607f821691505b6020821081036110bb576110ba611064565b5b50919050565b5f819050815f5260205f209050919050565b5f6020601f8301049050919050565b5f82821b905092915050565b5f6008830261111d7fffffffffffffffffffffffffffffffffffffffffffffffffffffffffffffffff826110e2565b61112786836110e2565b95508019841693508086168417925050509392505050565b5f819050919050565b5f61116261115d61115884610f9c565b61113f565b610f9c565b9050919050565b5f819050919050565b61117b83611148565b61118f61118782611169565b8484546110ee565b825550505050565b5f90565b6111a3611197565b6111ae818484611172565b505050565b5b818110156111d1576111c65f8261119b565b6001810190506111b4565b5050565b601f821115611216576111e7816110c1565b6111f0846110d3565b810160208510156111ff578190505b61121361120b856110d3565b8301826111b3565b50505b505050565b5f82821c905092915050565b5f6112365f198460080261121b565b1980831691505092915050565b5f61124e8383611227565b9150826002028217905092915050565b61126782610b62565b67ffffffffffffffff8111156112805761127f610ca6565b5b61128a8254611091565b6112958282856111d5565b5f60209050601f8311600181146112c6575f84156112b4578287015190505b6112be8582611243565b865550611325565b601f1984166112d4866110c1565b5f5b828110156112fb578489015182556001820191506020850194506020810190506112d6565b868310156113185784890151611314601f891682611227565b8355505b6001600288020188555050505b50505050505056fea2646970667358221220394f5796a988b421354c0bb3820ca6a6427527901e53f443eee78e28df30e04764736f6c63430008150033",
					"opcodes": "PUSH1 0x80 PUSH1 0x40 MSTORE CALLVALUE DUP1 ISZERO PUSH2 0xF JUMPI PUSH0 DUP1 REVERT JUMPDEST POP PUSH2 0x1363 DUP1 PUSH2 0x1D PUSH0 CODECOPY PUSH0 RETURN INVALID PUSH1 0x80 PUSH1 0x40 MSTORE CALLVALUE DUP1 ISZERO PUSH2 0xF JUMPI PUSH0 DUP1 REVERT JUMPDEST POP PUSH1 0x4 CALLDATASIZE LT PUSH2 0x55 JUMPI PUSH0 CALLDATALOAD PUSH1 0xE0 SHR DUP1 PUSH4 0x16C61D72 EQ PUSH2 0x59 JUMPI DUP1 PUSH4 0x2270A498 EQ PUSH2 0x75 JUMPI DUP1 PUSH4 0x4AB1FB4E EQ PUSH2 0x91 JUMPI DUP1 PUSH4 0x5B24559E EQ PUSH2 0xC1 JUMPI DUP1 PUSH4 0x62D61095 EQ PUSH2 0xDD JUMPI JUMPDEST PUSH0 DUP1 REVERT JUMPDEST PUSH2 0x73 PUSH1 0x4 DUP1 CALLDATASIZE SUB DUP2 ADD SWAP1 PUSH2 0x6E SWAP2 SWAP1 PUSH2 0xB0E JUMP JUMPDEST PUSH2 0xFB JUMP JUMPDEST STOP JUMPDEST PUSH2 0x8F PUSH1 0x4 DUP1 CALLDATASIZE SUB DUP2 ADD SWAP1 PUSH2 0x8A SWAP2 SWAP1 PUSH2 0xB0E JUMP JUMPDEST PUSH2 0x51B JUMP JUMPDEST STOP JUMPDEST PUSH2 0xAB PUSH1 0x4 DUP1 CALLDATASIZE SUB DUP2 ADD SWAP1 PUSH2 0xA6 SWAP2 SWAP1 PUSH2 0xB0E JUMP JUMPDEST PUSH2 0x728 JUMP JUMPDEST PUSH1 0x40 MLOAD PUSH2 0xB8 SWAP2 SWAP1 PUSH2 0xC7E JUMP JUMPDEST PUSH1 0x40 MLOAD DUP1 SWAP2 SUB SWAP1 RETURN JUMPDEST PUSH2 0xDB PUSH1 0x4 DUP1 CALLDATASIZE SUB DUP2 ADD SWAP1 PUSH2 0xD6 SWAP2 SWAP1 PUSH2 0xDCA JUMP JUMPDEST PUSH2 0x932 JUMP JUMPDEST STOP JUMPDEST PUSH2 0xE5 PUSH2 0x9A2 JUMP JUMPDEST PUSH1 0x40 MLOAD PUSH2 0xF2 SWAP2 SWAP1 PUSH2 0xF22 JUMP JUMPDEST PUSH1 0x40 MLOAD DUP1 SWAP2 SUB SWAP1 RETURN JUMPDEST PUSH1 0x1 DUP1 PUSH0 CALLER PUSH20 0xFFFFFFFFFFFFFFFFFFFFFFFFFFFFFFFFFFFFFFFF AND PUSH20 0xFFFFFFFFFFFFFFFFFFFFFFFFFFFFFFFFFFFFFFFF AND DUP2 MSTORE PUSH1 0x20 ADD SWAP1 DUP2 MSTORE PUSH1 0x20 ADD PUSH0 KECCAK256 PUSH0 DUP4 PUSH20 0xFFFFFFFFFFFFFFFFFFFFFFFFFFFFFFFFFFFFFFFF AND PUSH20 0xFFFFFFFFFFFFFFFFFFFFFFFFFFFFFFFFFFFFFFFF AND DUP2 MSTORE PUSH1 0x20 ADD SWAP1 DUP2 MSTORE PUSH1 0x20 ADD PUSH0 KECCAK256 PUSH0 PUSH2 0x100 EXP DUP2 SLOAD DUP2 PUSH1 0xFF MUL NOT AND SWAP1 DUP4 ISZERO ISZERO MUL OR SWAP1 SSTORE POP PUSH1 0x2 PUSH0 CALLER PUSH20 0xFFFFFFFFFFFFFFFFFFFFFFFFFFFFFFFFFFFFFFFF AND PUSH20 0xFFFFFFFFFFFFFFFFFFFFFFFFFFFFFFFFFFFFFFFF AND DUP2 MSTORE PUSH1 0x20 ADD SWAP1 DUP2 MSTORE PUSH1 0x20 ADD PUSH0 KECCAK256 PUSH0 DUP3 PUSH20 0xFFFFFFFFFFFFFFFFFFFFFFFFFFFFFFFFFFFFFFFF AND PUSH20 0xFFFFFFFFFFFFFFFFFFFFFFFFFFFFFFFFFFFFFFFF AND DUP2 MSTORE PUSH1 0x20 ADD SWAP1 DUP2 MSTORE PUSH1 0x20 ADD PUSH0 KECCAK256 PUSH0 SWAP1 SLOAD SWAP1 PUSH2 0x100 EXP SWAP1 DIV PUSH1 0xFF AND ISZERO PUSH2 0x395 JUMPI PUSH0 JUMPDEST PUSH1 0x3 PUSH0 CALLER PUSH20 0xFFFFFFFFFFFFFFFFFFFFFFFFFFFFFFFFFFFFFFFF AND PUSH20 0xFFFFFFFFFFFFFFFFFFFFFFFFFFFFFFFFFFFFFFFF AND DUP2 MSTORE PUSH1 0x20 ADD SWAP1 DUP2 MSTORE PUSH1 0x20 ADD PUSH0 KECCAK256 DUP1 SLOAD SWAP1 POP DUP2 LT ISZERO PUSH2 0x38F JUMPI DUP2 PUSH20 0xFFFFFFFFFFFFFFFFFFFFFFFFFFFFFFFFFFFFFFFF AND PUSH1 0x3 PUSH0 CALLER PUSH20 0xFFFFFFFFFFFFFFFFFFFFFFFFFFFFFFFFFFFFFFFF AND PUSH20 0xFFFFFFFFFFFFFFFFFFFFFFFFFFFFFFFFFFFFFFFF AND DUP2 MSTORE PUSH1 0x20 ADD SWAP1 DUP2 MSTORE PUSH1 0x20 ADD PUSH0 KECCAK256 DUP3 DUP2 SLOAD DUP2 LT PUSH2 0x2C4 JUMPI PUSH2 0x2C3 PUSH2 0xF42 JUMP JUMPDEST JUMPDEST SWAP1 PUSH0 MSTORE PUSH1 0x20 PUSH0 KECCAK256 ADD PUSH0 ADD PUSH0 SWAP1 SLOAD SWAP1 PUSH2 0x100 EXP SWAP1 DIV PUSH20 0xFFFFFFFFFFFFFFFFFFFFFFFFFFFFFFFFFFFFFFFF AND PUSH20 0xFFFFFFFFFFFFFFFFFFFFFFFFFFFFFFFFFFFFFFFF AND SUB PUSH2 0x37C JUMPI PUSH1 0x1 PUSH1 0x3 PUSH0 CALLER PUSH20 0xFFFFFFFFFFFFFFFFFFFFFFFFFFFFFFFFFFFFFFFF AND PUSH20 0xFFFFFFFFFFFFFFFFFFFFFFFFFFFFFFFFFFFFFFFF AND DUP2 MSTORE PUSH1 0x20 ADD SWAP1 DUP2 MSTORE PUSH1 0x20 ADD PUSH0 KECCAK256 DUP3 DUP2 SLOAD DUP2 LT PUSH2 0x35A JUMPI PUSH2 0x359 PUSH2 0xF42 JUMP JUMPDEST JUMPDEST SWAP1 PUSH0 MSTORE PUSH1 0x20 PUSH0 KECCAK256 ADD PUSH0 ADD PUSH1 0x14 PUSH2 0x100 EXP DUP2 SLOAD DUP2 PUSH1 0xFF MUL NOT AND SWAP1 DUP4 ISZERO ISZERO MUL OR SWAP1 SSTORE POP JUMPDEST DUP1 DUP1 PUSH2 0x387 SWAP1 PUSH2 0xFA5 JUMP JUMPDEST SWAP2 POP POP PUSH2 0x216 JUMP JUMPDEST POP PUSH2 0x518 JUMP JUMPDEST PUSH1 0x3 PUSH0 CALLER PUSH20 0xFFFFFFFFFFFFFFFFFFFFFFFFFFFFFFFFFFFFFFFF AND PUSH20 0xFFFFFFFFFFFFFFFFFFFFFFFFFFFFFFFFFFFFFFFF AND DUP2 MSTORE PUSH1 0x20 ADD SWAP1 DUP2 MSTORE PUSH1 0x20 ADD PUSH0 KECCAK256 PUSH1 0x40 MLOAD DUP1 PUSH1 0x40 ADD PUSH1 0x40 MSTORE DUP1 DUP4 PUSH20 0xFFFFFFFFFFFFFFFFFFFFFFFFFFFFFFFFFFFFFFFF AND DUP2 MSTORE PUSH1 0x20 ADD PUSH1 0x1 ISZERO ISZERO DUP2 MSTORE POP SWAP1 DUP1 PUSH1 0x1 DUP2 SLOAD ADD DUP1 DUP3 SSTORE DUP1 SWAP2 POP POP PUSH1 0x1 SWAP1 SUB SWAP1 PUSH0 MSTORE PUSH1 0x20 PUSH0 KECCAK256 ADD PUSH0 SWAP1 SWAP2 SWAP1 SWAP2 SWAP1 SWAP2 POP PUSH0 DUP3 ADD MLOAD DUP2 PUSH0 ADD PUSH0 PUSH2 0x100 EXP DUP2 SLOAD DUP2 PUSH20 0xFFFFFFFFFFFFFFFFFFFFFFFFFFFFFFFFFFFFFFFF MUL NOT AND SWAP1 DUP4 PUSH20 0xFFFFFFFFFFFFFFFFFFFFFFFFFFFFFFFFFFFFFFFF AND MUL OR SWAP1 SSTORE POP PUSH1 0x20 DUP3 ADD MLOAD DUP2 PUSH0 ADD PUSH1 0x14 PUSH2 0x100 EXP DUP2 SLOAD DUP2 PUSH1 0xFF MUL NOT AND SWAP1 DUP4 ISZERO ISZERO MUL OR SWAP1 SSTORE POP POP POP PUSH1 0x1 PUSH1 0x2 PUSH0 CALLER PUSH20 0xFFFFFFFFFFFFFFFFFFFFFFFFFFFFFFFFFFFFFFFF AND PUSH20 0xFFFFFFFFFFFFFFFFFFFFFFFFFFFFFFFFFFFFFFFF AND DUP2 MSTORE PUSH1 0x20 ADD SWAP1 DUP2 MSTORE PUSH1 0x20 ADD PUSH0 KECCAK256 PUSH0 DUP4 PUSH20 0xFFFFFFFFFFFFFFFFFFFFFFFFFFFFFFFFFFFFFFFF AND PUSH20 0xFFFFFFFFFFFFFFFFFFFFFFFFFFFFFFFFFFFFFFFF AND DUP2 MSTORE PUSH1 0x20 ADD SWAP1 DUP2 MSTORE PUSH1 0x20 ADD PUSH0 KECCAK256 PUSH0 PUSH2 0x100 EXP DUP2 SLOAD DUP2 PUSH1 0xFF MUL NOT AND SWAP1 DUP4 ISZERO ISZERO MUL OR SWAP1 SSTORE POP JUMPDEST POP JUMP JUMPDEST PUSH0 PUSH1 0x1 PUSH0 CALLER PUSH20 0xFFFFFFFFFFFFFFFFFFFFFFFFFFFFFFFFFFFFFFFF AND PUSH20 0xFFFFFFFFFFFFFFFFFFFFFFFFFFFFFFFFFFFFFFFF AND DUP2 MSTORE PUSH1 0x20 ADD SWAP1 DUP2 MSTORE PUSH1 0x20 ADD PUSH0 KECCAK256 PUSH0 DUP4 PUSH20 0xFFFFFFFFFFFFFFFFFFFFFFFFFFFFFFFFFFFFFFFF AND PUSH20 0xFFFFFFFFFFFFFFFFFFFFFFFFFFFFFFFFFFFFFFFF AND DUP2 MSTORE PUSH1 0x20 ADD SWAP1 DUP2 MSTORE PUSH1 0x20 ADD PUSH0 KECCAK256 PUSH0 PUSH2 0x100 EXP DUP2 SLOAD DUP2 PUSH1 0xFF MUL NOT AND SWAP1 DUP4 ISZERO ISZERO MUL OR SWAP1 SSTORE POP PUSH0 JUMPDEST PUSH1 0x3 PUSH0 CALLER PUSH20 0xFFFFFFFFFFFFFFFFFFFFFFFFFFFFFFFFFFFFFFFF AND PUSH20 0xFFFFFFFFFFFFFFFFFFFFFFFFFFFFFFFFFFFFFFFF AND DUP2 MSTORE PUSH1 0x20 ADD SWAP1 DUP2 MSTORE PUSH1 0x20 ADD PUSH0 KECCAK256 DUP1 SLOAD SWAP1 POP DUP2 LT ISZERO PUSH2 0x724 JUMPI DUP2 PUSH20 0xFFFFFFFFFFFFFFFFFFFFFFFFFFFFFFFFFFFFFFFF AND PUSH1 0x3 PUSH0 CALLER PUSH20 0xFFFFFFFFFFFFFFFFFFFFFFFFFFFFFFFFFFFFFFFF AND PUSH20 0xFFFFFFFFFFFFFFFFFFFFFFFFFFFFFFFFFFFFFFFF AND DUP2 MSTORE PUSH1 0x20 ADD SWAP1 DUP2 MSTORE PUSH1 0x20 ADD PUSH0 KECCAK256 DUP3 DUP2 SLOAD DUP2 LT PUSH2 0x65A JUMPI PUSH2 0x659 PUSH2 0xF42 JUMP JUMPDEST JUMPDEST SWAP1 PUSH0 MSTORE PUSH1 0x20 PUSH0 KECCAK256 ADD PUSH0 ADD PUSH0 SWAP1 SLOAD SWAP1 PUSH2 0x100 EXP SWAP1 DIV PUSH20 0xFFFFFFFFFFFFFFFFFFFFFFFFFFFFFFFFFFFFFFFF AND PUSH20 0xFFFFFFFFFFFFFFFFFFFFFFFFFFFFFFFFFFFFFFFF AND SUB PUSH2 0x711 JUMPI PUSH0 PUSH1 0x3 PUSH0 CALLER PUSH20 0xFFFFFFFFFFFFFFFFFFFFFFFFFFFFFFFFFFFFFFFF AND PUSH20 0xFFFFFFFFFFFFFFFFFFFFFFFFFFFFFFFFFFFFFFFF AND DUP2 MSTORE PUSH1 0x20 ADD SWAP1 DUP2 MSTORE PUSH1 0x20 ADD PUSH0 KECCAK256 DUP3 DUP2 SLOAD DUP2 LT PUSH2 0x6EF JUMPI PUSH2 0x6EE PUSH2 0xF42 JUMP JUMPDEST JUMPDEST SWAP1 PUSH0 MSTORE PUSH1 0x20 PUSH0 KECCAK256 ADD PUSH0 ADD PUSH1 0x14 PUSH2 0x100 EXP DUP2 SLOAD DUP2 PUSH1 0xFF MUL NOT AND SWAP1 DUP4 ISZERO ISZERO MUL OR SWAP1 SSTORE POP JUMPDEST DUP1 DUP1 PUSH2 0x71C SWAP1 PUSH2 0xFA5 JUMP JUMPDEST SWAP2 POP POP PUSH2 0x5AC JUMP JUMPDEST POP POP JUMP JUMPDEST PUSH1 0x60 CALLER PUSH20 0xFFFFFFFFFFFFFFFFFFFFFFFFFFFFFFFFFFFFFFFF AND DUP3 PUSH20 0xFFFFFFFFFFFFFFFFFFFFFFFFFFFFFFFFFFFFFFFF AND EQ DUP1 PUSH2 0x7E5 JUMPI POP PUSH1 0x1 PUSH0 DUP4 PUSH20 0xFFFFFFFFFFFFFFFFFFFFFFFFFFFFFFFFFFFFFFFF AND PUSH20 0xFFFFFFFFFFFFFFFFFFFFFFFFFFFFFFFFFFFFFFFF AND DUP2 MSTORE PUSH1 0x20 ADD SWAP1 DUP2 MSTORE PUSH1 0x20 ADD PUSH0 KECCAK256 PUSH0 CALLER PUSH20 0xFFFFFFFFFFFFFFFFFFFFFFFFFFFFFFFFFFFFFFFF AND PUSH20 0xFFFFFFFFFFFFFFFFFFFFFFFFFFFFFFFFFFFFFFFF AND DUP2 MSTORE PUSH1 0x20 ADD SWAP1 DUP2 MSTORE PUSH1 0x20 ADD PUSH0 KECCAK256 PUSH0 SWAP1 SLOAD SWAP1 PUSH2 0x100 EXP SWAP1 DIV PUSH1 0xFF AND JUMPDEST PUSH2 0x824 JUMPI PUSH1 0x40 MLOAD PUSH32 0x8C379A000000000000000000000000000000000000000000000000000000000 DUP2 MSTORE PUSH1 0x4 ADD PUSH2 0x81B SWAP1 PUSH2 0x1046 JUMP JUMPDEST PUSH1 0x40 MLOAD DUP1 SWAP2 SUB SWAP1 REVERT JUMPDEST PUSH0 DUP1 DUP4 PUSH20 0xFFFFFFFFFFFFFFFFFFFFFFFFFFFFFFFFFFFFFFFF AND PUSH20 0xFFFFFFFFFFFFFFFFFFFFFFFFFFFFFFFFFFFFFFFF AND DUP2 MSTORE PUSH1 0x20 ADD SWAP1 DUP2 MSTORE PUSH1 0x20 ADD PUSH0 KECCAK256 DUP1 SLOAD DUP1 PUSH1 0x20 MUL PUSH1 0x20 ADD PUSH1 0x40 MLOAD SWAP1 DUP2 ADD PUSH1 0x40 MSTORE DUP1 SWAP3 SWAP2 SWAP1 DUP2 DUP2 MSTORE PUSH1 0x20 ADD PUSH0 SWAP1 JUMPDEST DUP3 DUP3 LT ISZERO PUSH2 0x927 JUMPI DUP4 DUP3 SWAP1 PUSH0 MSTORE PUSH1 0x20 PUSH0 KECCAK256 ADD DUP1 SLOAD PUSH2 0x89C SWAP1 PUSH2 0x1091 JUMP JUMPDEST DUP1 PUSH1 0x1F ADD PUSH1 0x20 DUP1 SWAP2 DIV MUL PUSH1 0x20 ADD PUSH1 0x40 MLOAD SWAP1 DUP2 ADD PUSH1 0x40 MSTORE DUP1 SWAP3 SWAP2 SWAP1 DUP2 DUP2 MSTORE PUSH1 0x20 ADD DUP3 DUP1 SLOAD PUSH2 0x8C8 SWAP1 PUSH2 0x1091 JUMP JUMPDEST DUP1 ISZERO PUSH2 0x913 JUMPI DUP1 PUSH1 0x1F LT PUSH2 0x8EA JUMPI PUSH2 0x100 DUP1 DUP4 SLOAD DIV MUL DUP4 MSTORE SWAP2 PUSH1 0x20 ADD SWAP2 PUSH2 0x913 JUMP JUMPDEST DUP3 ADD SWAP2 SWAP1 PUSH0 MSTORE PUSH1 0x20 PUSH0 KECCAK256 SWAP1 JUMPDEST DUP2 SLOAD DUP2 MSTORE SWAP1 PUSH1 0x1 ADD SWAP1 PUSH1 0x20 ADD DUP1 DUP4 GT PUSH2 0x8F6 JUMPI DUP3 SWAP1 SUB PUSH1 0x1F AND DUP3 ADD SWAP2 JUMPDEST POP POP POP POP POP DUP2 MSTORE PUSH1 0x20 ADD SWAP1 PUSH1 0x1 ADD SWAP1 PUSH2 0x87F JUMP JUMPDEST POP POP POP POP SWAP1 POP SWAP2 SWAP1 POP JUMP JUMPDEST PUSH0 DUP1 DUP4 PUSH20 0xFFFFFFFFFFFFFFFFFFFFFFFFFFFFFFFFFFFFFFFF AND PUSH20 0xFFFFFFFFFFFFFFFFFFFFFFFFFFFFFFFFFFFFFFFF AND DUP2 MSTORE PUSH1 0x20 ADD SWAP1 DUP2 MSTORE PUSH1 0x20 ADD PUSH0 KECCAK256 DUP2 SWAP1 DUP1 PUSH1 0x1 DUP2 SLOAD ADD DUP1 DUP3 SSTORE DUP1 SWAP2 POP POP PUSH1 0x1 SWAP1 SUB SWAP1 PUSH0 MSTORE PUSH1 0x20 PUSH0 KECCAK256 ADD PUSH0 SWAP1 SWAP2 SWAP1 SWAP2 SWAP1 SWAP2 POP SWAP1 DUP2 PUSH2 0x99D SWAP2 SWAP1 PUSH2 0x125E JUMP JUMPDEST POP POP POP JUMP JUMPDEST PUSH1 0x60 PUSH1 0x3 PUSH0 CALLER PUSH20 0xFFFFFFFFFFFFFFFFFFFFFFFFFFFFFFFFFFFFFFFF AND PUSH20 0xFFFFFFFFFFFFFFFFFFFFFFFFFFFFFFFFFFFFFFFF AND DUP2 MSTORE PUSH1 0x20 ADD SWAP1 DUP2 MSTORE PUSH1 0x20 ADD PUSH0 KECCAK256 DUP1 SLOAD DUP1 PUSH1 0x20 MUL PUSH1 0x20 ADD PUSH1 0x40 MLOAD SWAP1 DUP2 ADD PUSH1 0x40 MSTORE DUP1 SWAP3 SWAP2 SWAP1 DUP2 DUP2 MSTORE PUSH1 0x20 ADD PUSH0 SWAP1 JUMPDEST DUP3 DUP3 LT ISZERO PUSH2 0xA9A JUMPI DUP4 DUP3 SWAP1 PUSH0 MSTORE PUSH1 0x20 PUSH0 KECCAK256 ADD PUSH1 0x40 MLOAD DUP1 PUSH1 0x40 ADD PUSH1 0x40 MSTORE SWAP1 DUP2 PUSH0 DUP3 ADD PUSH0 SWAP1 SLOAD SWAP1 PUSH2 0x100 EXP SWAP1 DIV PUSH20 0xFFFFFFFFFFFFFFFFFFFFFFFFFFFFFFFFFFFFFFFF AND PUSH20 0xFFFFFFFFFFFFFFFFFFFFFFFFFFFFFFFFFFFFFFFF AND PUSH20 0xFFFFFFFFFFFFFFFFFFFFFFFFFFFFFFFFFFFFFFFF AND DUP2 MSTORE PUSH1 0x20 ADD PUSH0 DUP3 ADD PUSH1 0x14 SWAP1 SLOAD SWAP1 PUSH2 0x100 EXP SWAP1 DIV PUSH1 0xFF AND ISZERO ISZERO ISZERO ISZERO DUP2 MSTORE POP POP DUP2 MSTORE PUSH1 0x20 ADD SWAP1 PUSH1 0x1 ADD SWAP1 PUSH2 0xA00 JUMP JUMPDEST POP POP POP POP SWAP1 POP SWAP1 JUMP JUMPDEST PUSH0 PUSH1 0x40 MLOAD SWAP1 POP SWAP1 JUMP JUMPDEST PUSH0 DUP1 REVERT JUMPDEST PUSH0 DUP1 REVERT JUMPDEST PUSH0 PUSH20 0xFFFFFFFFFFFFFFFFFFFFFFFFFFFFFFFFFFFFFFFF DUP3 AND SWAP1 POP SWAP2 SWAP1 POP JUMP JUMPDEST PUSH0 PUSH2 0xADD DUP3 PUSH2 0xAB4 JUMP JUMPDEST SWAP1 POP SWAP2 SWAP1 POP JUMP JUMPDEST PUSH2 0xAED DUP2 PUSH2 0xAD3 JUMP JUMPDEST DUP2 EQ PUSH2 0xAF7 JUMPI PUSH0 DUP1 REVERT JUMPDEST POP JUMP JUMPDEST PUSH0 DUP2 CALLDATALOAD SWAP1 POP PUSH2 0xB08 DUP2 PUSH2 0xAE4 JUMP JUMPDEST SWAP3 SWAP2 POP POP JUMP JUMPDEST PUSH0 PUSH1 0x20 DUP3 DUP5 SUB SLT ISZERO PUSH2 0xB23 JUMPI PUSH2 0xB22 PUSH2 0xAAC JUMP JUMPDEST JUMPDEST PUSH0 PUSH2 0xB30 DUP5 DUP3 DUP6 ADD PUSH2 0xAFA JUMP JUMPDEST SWAP2 POP POP SWAP3 SWAP2 POP POP JUMP JUMPDEST PUSH0 DUP2 MLOAD SWAP1 POP SWAP2 SWAP1 POP JUMP JUMPDEST PUSH0 DUP3 DUP3 MSTORE PUSH1 0x20 DUP3 ADD SWAP1 POP SWAP3 SWAP2 POP POP JUMP JUMPDEST PUSH0 DUP2 SWAP1 POP PUSH1 0x20 DUP3 ADD SWAP1 POP SWAP2 SWAP1 POP JUMP JUMPDEST PUSH0 DUP2 MLOAD SWAP1 POP SWAP2 SWAP1 POP JUMP JUMPDEST PUSH0 DUP3 DUP3 MSTORE PUSH1 0x20 DUP3 ADD SWAP1 POP SWAP3 SWAP2 POP POP JUMP JUMPDEST PUSH0 JUMPDEST DUP4 DUP2 LT ISZERO PUSH2 0xB99 JUMPI DUP1 DUP3 ADD MLOAD DUP2 DUP5 ADD MSTORE PUSH1 0x20 DUP2 ADD SWAP1 POP PUSH2 0xB7E JUMP JUMPDEST PUSH0 DUP5 DUP5 ADD MSTORE POP POP POP POP JUMP JUMPDEST PUSH0 PUSH1 0x1F NOT PUSH1 0x1F DUP4 ADD AND SWAP1 POP SWAP2 SWAP1 POP JUMP JUMPDEST PUSH0 PUSH2 0xBBE DUP3 PUSH2 0xB62 JUMP JUMPDEST PUSH2 0xBC8 DUP2 DUP6 PUSH2 0xB6C JUMP JUMPDEST SWAP4 POP PUSH2 0xBD8 DUP2 DUP6 PUSH1 0x20 DUP7 ADD PUSH2 0xB7C JUMP JUMPDEST PUSH2 0xBE1 DUP2 PUSH2 0xBA4 JUMP JUMPDEST DUP5 ADD SWAP2 POP POP SWAP3 SWAP2 POP POP JUMP JUMPDEST PUSH0 PUSH2 0xBF7 DUP4 DUP4 PUSH2 0xBB4 JUMP JUMPDEST SWAP1 POP SWAP3 SWAP2 POP POP JUMP JUMPDEST PUSH0 PUSH1 0x20 DUP3 ADD SWAP1 POP SWAP2 SWAP1 POP JUMP JUMPDEST PUSH0 PUSH2 0xC15 DUP3 PUSH2 0xB39 JUMP JUMPDEST PUSH2 0xC1F DUP2 DUP6 PUSH2 0xB43 JUMP JUMPDEST SWAP4 POP DUP4 PUSH1 0x20 DUP3 MUL DUP6 ADD PUSH2 0xC31 DUP6 PUSH2 0xB53 JUMP JUMPDEST DUP1 PUSH0 JUMPDEST DUP6 DUP2 LT ISZERO PUSH2 0xC6C JUMPI DUP5 DUP5 SUB DUP10 MSTORE DUP2 MLOAD PUSH2 0xC4D DUP6 DUP3 PUSH2 0xBEC JUMP JUMPDEST SWAP5 POP PUSH2 0xC58 DUP4 PUSH2 0xBFF JUMP JUMPDEST SWAP3 POP PUSH1 0x20 DUP11 ADD SWAP10 POP POP PUSH1 0x1 DUP2 ADD SWAP1 POP PUSH2 0xC34 JUMP JUMPDEST POP DUP3 SWAP8 POP DUP8 SWAP6 POP POP POP POP POP POP SWAP3 SWAP2 POP POP JUMP JUMPDEST PUSH0 PUSH1 0x20 DUP3 ADD SWAP1 POP DUP2 DUP2 SUB PUSH0 DUP4 ADD MSTORE PUSH2 0xC96 DUP2 DUP5 PUSH2 0xC0B JUMP JUMPDEST SWAP1 POP SWAP3 SWAP2 POP POP JUMP JUMPDEST PUSH0 DUP1 REVERT JUMPDEST PUSH0 DUP1 REVERT JUMPDEST PUSH32 0x4E487B7100000000000000000000000000000000000000000000000000000000 PUSH0 MSTORE PUSH1 0x41 PUSH1 0x4 MSTORE PUSH1 0x24 PUSH0 REVERT JUMPDEST PUSH2 0xCDC DUP3 PUSH2 0xBA4 JUMP JUMPDEST DUP2 ADD DUP2 DUP2 LT PUSH8 0xFFFFFFFFFFFFFFFF DUP3 GT OR ISZERO PUSH2 0xCFB JUMPI PUSH2 0xCFA PUSH2 0xCA6 JUMP JUMPDEST JUMPDEST DUP1 PUSH1 0x40 MSTORE POP POP POP JUMP JUMPDEST PUSH0 PUSH2 0xD0D PUSH2 0xAA3 JUMP JUMPDEST SWAP1 POP PUSH2 0xD19 DUP3 DUP3 PUSH2 0xCD3 JUMP JUMPDEST SWAP2 SWAP1 POP JUMP JUMPDEST PUSH0 PUSH8 0xFFFFFFFFFFFFFFFF DUP3 GT ISZERO PUSH2 0xD38 JUMPI PUSH2 0xD37 PUSH2 0xCA6 JUMP JUMPDEST JUMPDEST PUSH2 0xD41 DUP3 PUSH2 0xBA4 JUMP JUMPDEST SWAP1 POP PUSH1 0x20 DUP2 ADD SWAP1 POP SWAP2 SWAP1 POP JUMP JUMPDEST DUP3 DUP2 DUP4 CALLDATACOPY PUSH0 DUP4 DUP4 ADD MSTORE POP POP POP JUMP JUMPDEST PUSH0 PUSH2 0xD6E PUSH2 0xD69 DUP5 PUSH2 0xD1E JUMP JUMPDEST PUSH2 0xD04 JUMP JUMPDEST SWAP1 POP DUP3 DUP2 MSTORE PUSH1 0x20 DUP2 ADD DUP5 DUP5 DUP5 ADD GT ISZERO PUSH2 0xD8A JUMPI PUSH2 0xD89 PUSH2 0xCA2 JUMP JUMPDEST JUMPDEST PUSH2 0xD95 DUP5 DUP3 DUP6 PUSH2 0xD4E JUMP JUMPDEST POP SWAP4 SWAP3 POP POP POP JUMP JUMPDEST PUSH0 DUP3 PUSH1 0x1F DUP4 ADD SLT PUSH2 0xDB1 JUMPI PUSH2 0xDB0 PUSH2 0xC9E JUMP JUMPDEST JUMPDEST DUP2 CALLDATALOAD PUSH2 0xDC1 DUP5 DUP3 PUSH1 0x20 DUP7 ADD PUSH2 0xD5C JUMP JUMPDEST SWAP2 POP POP SWAP3 SWAP2 POP POP JUMP JUMPDEST PUSH0 DUP1 PUSH1 0x40 DUP4 DUP6 SUB SLT ISZERO PUSH2 0xDE0 JUMPI PUSH2 0xDDF PUSH2 0xAAC JUMP JUMPDEST JUMPDEST PUSH0 PUSH2 0xDED DUP6 DUP3 DUP7 ADD PUSH2 0xAFA JUMP JUMPDEST SWAP3 POP POP PUSH1 0x20 DUP4 ADD CALLDATALOAD PUSH8 0xFFFFFFFFFFFFFFFF DUP2 GT ISZERO PUSH2 0xE0E JUMPI PUSH2 0xE0D PUSH2 0xAB0 JUMP JUMPDEST JUMPDEST PUSH2 0xE1A DUP6 DUP3 DUP7 ADD PUSH2 0xD9D JUMP JUMPDEST SWAP2 POP POP SWAP3 POP SWAP3 SWAP1 POP JUMP JUMPDEST PUSH0 DUP2 MLOAD SWAP1 POP SWAP2 SWAP1 POP JUMP JUMPDEST PUSH0 DUP3 DUP3 MSTORE PUSH1 0x20 DUP3 ADD SWAP1 POP SWAP3 SWAP2 POP POP JUMP JUMPDEST PUSH0 DUP2 SWAP1 POP PUSH1 0x20 DUP3 ADD SWAP1 POP SWAP2 SWAP1 POP JUMP JUMPDEST PUSH2 0xE56 DUP2 PUSH2 0xAD3 JUMP JUMPDEST DUP3 MSTORE POP POP JUMP JUMPDEST PUSH0 DUP2 ISZERO ISZERO SWAP1 POP SWAP2 SWAP1 POP JUMP JUMPDEST PUSH2 0xE70 DUP2 PUSH2 0xE5C JUMP JUMPDEST DUP3 MSTORE POP POP JUMP JUMPDEST PUSH1 0x40 DUP3 ADD PUSH0 DUP3 ADD MLOAD PUSH2 0xE8A PUSH0 DUP6 ADD DUP3 PUSH2 0xE4D JUMP JUMPDEST POP PUSH1 0x20 DUP3 ADD MLOAD PUSH2 0xE9D PUSH1 0x20 DUP6 ADD DUP3 PUSH2 0xE67 JUMP JUMPDEST POP POP POP POP JUMP JUMPDEST PUSH0 PUSH2 0xEAE DUP4 DUP4 PUSH2 0xE76 JUMP JUMPDEST PUSH1 0x40 DUP4 ADD SWAP1 POP SWAP3 SWAP2 POP POP JUMP JUMPDEST PUSH0 PUSH1 0x20 DUP3 ADD SWAP1 POP SWAP2 SWAP1 POP JUMP JUMPDEST PUSH0 PUSH2 0xED0 DUP3 PUSH2 0xE24 JUMP JUMPDEST PUSH2 0xEDA DUP2 DUP6 PUSH2 0xE2E JUMP JUMPDEST SWAP4 POP PUSH2 0xEE5 DUP4 PUSH2 0xE3E JUMP JUMPDEST DUP1 PUSH0 JUMPDEST DUP4 DUP2 LT ISZERO PUSH2 0xF15 JUMPI DUP2 MLOAD PUSH2 0xEFC DUP9 DUP3 PUSH2 0xEA3 JUMP JUMPDEST SWAP8 POP PUSH2 0xF07 DUP4 PUSH2 0xEBA JUMP JUMPDEST SWAP3 POP POP PUSH1 0x1 DUP2 ADD SWAP1 POP PUSH2 0xEE8 JUMP JUMPDEST POP DUP6 SWAP4 POP POP POP POP SWAP3 SWAP2 POP POP JUMP JUMPDEST PUSH0 PUSH1 0x20 DUP3 ADD SWAP1 POP DUP2 DUP2 SUB PUSH0 DUP4 ADD MSTORE PUSH2 0xF3A DUP2 DUP5 PUSH2 0xEC6 JUMP JUMPDEST SWAP1 POP SWAP3 SWAP2 POP POP JUMP JUMPDEST PUSH32 0x4E487B7100000000000000000000000000000000000000000000000000000000 PUSH0 MSTORE PUSH1 0x32 PUSH1 0x4 MSTORE PUSH1 0x24 PUSH0 REVERT JUMPDEST PUSH32 0x4E487B7100000000000000000000000000000000000000000000000000000000 PUSH0 MSTORE PUSH1 0x11 PUSH1 0x4 MSTORE PUSH1 0x24 PUSH0 REVERT JUMPDEST PUSH0 DUP2 SWAP1 POP SWAP2 SWAP1 POP JUMP JUMPDEST PUSH0 PUSH2 0xFAF DUP3 PUSH2 0xF9C JUMP JUMPDEST SWAP2 POP PUSH32 0xFFFFFFFFFFFFFFFFFFFFFFFFFFFFFFFFFFFFFFFFFFFFFFFFFFFFFFFFFFFFFFFF DUP3 SUB PUSH2 0xFE1 JUMPI PUSH2 0xFE0 PUSH2 0xF6F JUMP JUMPDEST JUMPDEST PUSH1 0x1 DUP3 ADD SWAP1 POP SWAP2 SWAP1 POP JUMP JUMPDEST PUSH0 DUP3 DUP3 MSTORE PUSH1 0x20 DUP3 ADD SWAP1 POP SWAP3 SWAP2 POP POP JUMP JUMPDEST PUSH32 0x596F7520446F6E27742048617665204163636573730000000000000000000000 PUSH0 DUP3 ADD MSTORE POP JUMP JUMPDEST PUSH0 PUSH2 0x1030 PUSH1 0x15 DUP4 PUSH2 0xFEC JUMP JUMPDEST SWAP2 POP PUSH2 0x103B DUP3 PUSH2 0xFFC JUMP JUMPDEST PUSH1 0x20 DUP3 ADD SWAP1 POP SWAP2 SWAP1 POP JUMP JUMPDEST PUSH0 PUSH1 0x20 DUP3 ADD SWAP1 POP DUP2 DUP2 SUB PUSH0 DUP4 ADD MSTORE PUSH2 0x105D DUP2 PUSH2 0x1024 JUMP JUMPDEST SWAP1 POP SWAP2 SWAP1 POP JUMP JUMPDEST PUSH32 0x4E487B7100000000000000000000000000000000000000000000000000000000 PUSH0 MSTORE PUSH1 0x22 PUSH1 0x4 MSTORE PUSH1 0x24 PUSH0 REVERT JUMPDEST PUSH0 PUSH1 0x2 DUP3 DIV SWAP1 POP PUSH1 0x1 DUP3 AND DUP1 PUSH2 0x10A8 JUMPI PUSH1 0x7F DUP3 AND SWAP2 POP JUMPDEST PUSH1 0x20 DUP3 LT DUP2 SUB PUSH2 0x10BB JUMPI PUSH2 0x10BA PUSH2 0x1064 JUMP JUMPDEST JUMPDEST POP SWAP2 SWAP1 POP JUMP JUMPDEST PUSH0 DUP2 SWAP1 POP DUP2 PUSH0 MSTORE PUSH1 0x20 PUSH0 KECCAK256 SWAP1 POP SWAP2 SWAP1 POP JUMP JUMPDEST PUSH0 PUSH1 0x20 PUSH1 0x1F DUP4 ADD DIV SWAP1 POP SWAP2 SWAP1 POP JUMP JUMPDEST PUSH0 DUP3 DUP3 SHL SWAP1 POP SWAP3 SWAP2 POP POP JUMP JUMPDEST PUSH0 PUSH1 0x8 DUP4 MUL PUSH2 0x111D PUSH32 0xFFFFFFFFFFFFFFFFFFFFFFFFFFFFFFFFFFFFFFFFFFFFFFFFFFFFFFFFFFFFFFFF DUP3 PUSH2 0x10E2 JUMP JUMPDEST PUSH2 0x1127 DUP7 DUP4 PUSH2 0x10E2 JUMP JUMPDEST SWAP6 POP DUP1 NOT DUP5 AND SWAP4 POP DUP1 DUP7 AND DUP5 OR SWAP3 POP POP POP SWAP4 SWAP3 POP POP POP JUMP JUMPDEST PUSH0 DUP2 SWAP1 POP SWAP2 SWAP1 POP JUMP JUMPDEST PUSH0 PUSH2 0x1162 PUSH2 0x115D PUSH2 0x1158 DUP5 PUSH2 0xF9C JUMP JUMPDEST PUSH2 0x113F JUMP JUMPDEST PUSH2 0xF9C JUMP JUMPDEST SWAP1 POP SWAP2 SWAP1 POP JUMP JUMPDEST PUSH0 DUP2 SWAP1 POP SWAP2 SWAP1 POP JUMP JUMPDEST PUSH2 0x117B DUP4 PUSH2 0x1148 JUMP JUMPDEST PUSH2 0x118F PUSH2 0x1187 DUP3 PUSH2 0x1169 JUMP JUMPDEST DUP5 DUP5 SLOAD PUSH2 0x10EE JUMP JUMPDEST DUP3 SSTORE POP POP POP POP JUMP JUMPDEST PUSH0 SWAP1 JUMP JUMPDEST PUSH2 0x11A3 PUSH2 0x1197 JUMP JUMPDEST PUSH2 0x11AE DUP2 DUP5 DUP5 PUSH2 0x1172 JUMP JUMPDEST POP POP POP JUMP JUMPDEST JUMPDEST DUP2 DUP2 LT ISZERO PUSH2 0x11D1 JUMPI PUSH2 0x11C6 PUSH0 DUP3 PUSH2 0x119B JUMP JUMPDEST PUSH1 0x1 DUP2 ADD SWAP1 POP PUSH2 0x11B4 JUMP JUMPDEST POP POP JUMP JUMPDEST PUSH1 0x1F DUP3 GT ISZERO PUSH2 0x1216 JUMPI PUSH2 0x11E7 DUP2 PUSH2 0x10C1 JUMP JUMPDEST PUSH2 0x11F0 DUP5 PUSH2 0x10D3 JUMP JUMPDEST DUP2 ADD PUSH1 0x20 DUP6 LT ISZERO PUSH2 0x11FF JUMPI DUP2 SWAP1 POP JUMPDEST PUSH2 0x1213 PUSH2 0x120B DUP6 PUSH2 0x10D3 JUMP JUMPDEST DUP4 ADD DUP3 PUSH2 0x11B3 JUMP JUMPDEST POP POP JUMPDEST POP POP POP JUMP JUMPDEST PUSH0 DUP3 DUP3 SHR SWAP1 POP SWAP3 SWAP2 POP POP JUMP JUMPDEST PUSH0 PUSH2 0x1236 PUSH0 NOT DUP5 PUSH1 0x8 MUL PUSH2 0x121B JUMP JUMPDEST NOT DUP1 DUP4 AND SWAP2 POP POP SWAP3 SWAP2 POP POP JUMP JUMPDEST PUSH0 PUSH2 0x124E DUP4 DUP4 PUSH2 0x1227 JUMP JUMPDEST SWAP2 POP DUP3 PUSH1 0x2 MUL DUP3 OR SWAP1 POP SWAP3 SWAP2 POP POP JUMP JUMPDEST PUSH2 0x1267 DUP3 PUSH2 0xB62 JUMP JUMPDEST PUSH8 0xFFFFFFFFFFFFFFFF DUP2 GT ISZERO PUSH2 0x1280 JUMPI PUSH2 0x127F PUSH2 0xCA6 JUMP JUMPDEST JUMPDEST PUSH2 0x128A DUP3 SLOAD PUSH2 0x1091 JUMP JUMPDEST PUSH2 0x1295 DUP3 DUP3 DUP6 PUSH2 0x11D5 JUMP JUMPDEST PUSH0 PUSH1 0x20 SWAP1 POP PUSH1 0x1F DUP4 GT PUSH1 0x1 DUP2 EQ PUSH2 0x12C6 JUMPI PUSH0 DUP5 ISZERO PUSH2 0x12B4 JUMPI DUP3 DUP8 ADD MLOAD SWAP1 POP JUMPDEST PUSH2 0x12BE DUP6 DUP3 PUSH2 0x1243 JUMP JUMPDEST DUP7 SSTORE POP PUSH2 0x1325 JUMP JUMPDEST PUSH1 0x1F NOT DUP5 AND PUSH2 0x12D4 DUP7 PUSH2 0x10C1 JUMP JUMPDEST PUSH0 JUMPDEST DUP3 DUP2 LT ISZERO PUSH2 0x12FB JUMPI DUP5 DUP10 ADD MLOAD DUP3 SSTORE PUSH1 0x1 DUP3 ADD SWAP2 POP PUSH1 0x20 DUP6 ADD SWAP5 POP PUSH1 0x20 DUP2 ADD SWAP1 POP PUSH2 0x12D6 JUMP JUMPDEST DUP7 DUP4 LT ISZERO PUSH2 0x1318 JUMPI DUP5 DUP10 ADD MLOAD PUSH2 0x1314 PUSH1 0x1F DUP10 AND DUP3 PUSH2 0x1227 JUMP JUMPDEST DUP4 SSTORE POP JUMPDEST PUSH1 0x1 PUSH1 0x2 DUP9 MUL ADD DUP9 SSTORE POP POP POP JUMPDEST POP POP POP POP POP POP JUMP INVALID LOG2 PUSH5 0x6970667358 0x22 SLT KECCAK256 CODECOPY 0x4F JUMPI SWAP7 0xA9 DUP9 0xB4 0x21 CALLDATALOAD 0x4C SIGNEXTEND 0xB3 DUP3 0xC 0xA6 0xA6 TIMESTAMP PUSH22 0x27901E53F443EEE78E28DF30E04764736F6C63430008 ISZERO STOP CALLER "
				},
				"gasEstimates": {
					"creation": {
						"codeDepositCost": "992600",
						"executionCost": "1032",
						"totalCost": "993632"
					},
					"external": {
						"Allow(address)": "infinite",
						"DisAllow(address)": "infinite",
						"Display(address)": "infinite",
						"ShareAccess()": "infinite",
						"Upload(address,string)": "infinite"
					}
				},
				"methodIdentifiers": {
					"Allow(address)": "16c61d72",
					"DisAllow(address)": "2270a498",
					"Display(address)": "4ab1fb4e",
					"ShareAccess()": "62d61095",
					"Upload(address,string)": "5b24559e"
				}
			},
			"storageLayout": {
				"storage": [
					{
						"astId": 11,
						"contract": "contracts/Gitmod.sol:Gitmod",
						"label": "Links",
						"offset": 0,
						"slot": "0",
						"type": "t_mapping(t_address,t_array(t_string_storage)dyn_storage)"
					},
					{
						"astId": 17,
						"contract": "contracts/Gitmod.sol:Gitmod",
						"label": "Ownership",
						"offset": 0,
						"slot": "1",
						"type": "t_mapping(t_address,t_mapping(t_address,t_bool))"
					},
					{
						"astId": 23,
						"contract": "contracts/Gitmod.sol:Gitmod",
						"label": "PreviousState",
						"offset": 0,
						"slot": "2",
						"type": "t_mapping(t_address,t_mapping(t_address,t_bool))"
					},
					{
						"astId": 29,
						"contract": "contracts/Gitmod.sol:Gitmod",
						"label": "AccessList",
						"offset": 0,
						"slot": "3",
						"type": "t_mapping(t_address,t_array(t_struct(Access)6_storage)dyn_storage)"
					}
				],
				"types": {
					"t_address": {
						"encoding": "inplace",
						"label": "address",
						"numberOfBytes": "20"
					},
					"t_array(t_string_storage)dyn_storage": {
						"base": "t_string_storage",
						"encoding": "dynamic_array",
						"label": "string[]",
						"numberOfBytes": "32"
					},
					"t_array(t_struct(Access)6_storage)dyn_storage": {
						"base": "t_struct(Access)6_storage",
						"encoding": "dynamic_array",
						"label": "struct Gitmod.Access[]",
						"numberOfBytes": "32"
					},
					"t_bool": {
						"encoding": "inplace",
						"label": "bool",
						"numberOfBytes": "1"
					},
					"t_mapping(t_address,t_array(t_string_storage)dyn_storage)": {
						"encoding": "mapping",
						"key": "t_address",
						"label": "mapping(address => string[])",
						"numberOfBytes": "32",
						"value": "t_array(t_string_storage)dyn_storage"
					},
					"t_mapping(t_address,t_array(t_struct(Access)6_storage)dyn_storage)": {
						"encoding": "mapping",
						"key": "t_address",
						"label": "mapping(address => struct Gitmod.Access[])",
						"numberOfBytes": "32",
						"value": "t_array(t_struct(Access)6_storage)dyn_storage"
					},
					"t_mapping(t_address,t_bool)": {
						"encoding": "mapping",
						"key": "t_address",
						"label": "mapping(address => bool)",
						"numberOfBytes": "32",
						"value": "t_bool"
					},
					"t_mapping(t_address,t_mapping(t_address,t_bool))": {
						"encoding": "mapping",
						"key": "t_address",
						"label": "mapping(address => mapping(address => bool))",
						"numberOfBytes": "32",
						"value": "t_mapping(t_address,t_bool)"
					},
					"t_string_storage": {
						"encoding": "bytes",
						"label": "string",
						"numberOfBytes": "32"
					},
					"t_struct(Access)6_storage": {
						"encoding": "inplace",
						"label": "struct Gitmod.Access",
						"members": [
							{
								"astId": 3,
								"contract": "contracts/Gitmod.sol:Gitmod",
								"label": "User",
								"offset": 0,
								"slot": "0",
								"type": "t_address"
							},
							{
								"astId": 5,
								"contract": "contracts/Gitmod.sol:Gitmod",
								"label": "Allow",
								"offset": 20,
								"slot": "0",
								"type": "t_bool"
							}
						],
						"numberOfBytes": "32"
					}
				}
			},
			"userdoc": {
				"kind": "user",
				"methods": {},
				"version": 1
			}
		}
	}
}